:060000002FC0FECFFDCF72
:10000600FCCFFBCFFACFF9CFF8CFF7CF40C0F5CF73
:10001600F4CFF3CFF2CFF1CFF0CFEFCFEECFEDCFDE
:100026001027E80364000A00010000100001100018
:1000360001006164635F743D2025690D0A00736FDA
:100046006C64657231313D2025690D0A00736F6C51
:100056006465723D2025690D0A00F894EE27ECBB15
:10006600F1E0FBBFEBBFE5BF8DE0A2E0BB27ED9360
:100076008A95E9F780E094E0A0E6ED930197E9F729
:10008600EFE5EDBFE4E0EEBFC0E6D1E02EC0189587
:10009600AA93E881E7B983E08A95F1F7369A349B0B
:1000A600FECF349AE4B1F5B167C050D2A6E0F0DFD6
:1000B6008F01E8E3F0E0FA93EA93F801B7D1E4E4BC
:1000C600F0E0BAD1F801A5E3B0E004D2DF01E8EE32
:1000D600F3E018D2F997AAD1D801AB56B040E2E0C6
:1000E600F0E010D2099119910895E7E0E7BBE0E04E
:1000F600E8BBE4BBE5BBE1BBE2BBE5E0E3BFE0E0B8
:10010600E2BFE3EFEFBDE1E0EEBDE0E0EDBDECBD4B
:10011600E7BDE6BDEBBDEABDE9BDE8BDE2BDE5BDB7
:10012600E4BDE3BDE1E0E9BFE0E0E5BFEBB9E8E04F
:10013600EAB9E6E8E0BDE0E0E0BDECE0E9B9E0E818
:10014600E8B9E0E0E7B9E7E8E6B9E0E0E0BFEDB935
:10015600E6BF7894E3E5F0E06FD1A7DF67D1EAB5B3
:10016600EF5FEABDA8EEB3E096D1F4CFFFCFAA9336
:100176005D9BFECFE881ECB92196089560D1AA81F6
:10018600F6DFA881B981ED91FD913196FE93EE934C
:100196002396089554D12697D5D110E0AC85BD8518
:1001A600E0E0F0E0ED93FC93EA89FB893196EA8B77
:1001B600FB8B3197E4912E2FE03009F4FCC0E12F40
:1001C600E03031F4253211F411E001C03BD1F2C028
:1001D600E130A1F4253211F435D1EBC012E040E054
:1001E60000E02D3211F401E0E5C02B3211F44BE2B0
:1001F600E1C0203211F440E2DDC002C0E23039F441
:1002060050E013E0203311F40068D4C003C0E3309B
:1002160009F0D0C0203310F02A3308F007C0AAE056
:100226005A9F502DE22FE0535E0FC4C0E22FE336F3
:1002360039F40FD111D10DD1A481AA9311D1B9C02E
:10024600E33729F413D114D1DAD01E2F07C0E037D3
:1002560049F40CD10DD1DED01E2F086002600F7755
:1002660030E02DC0E43611F0E93611F4046002C026
:10027600E53729F4E6E2F0E004D115E00BC0E835F5
:1002860011F4086003C0E83709F093C0E0E3F0E03A
:10029600F8D014E002FF11C0E9D0F6D0AB85AA234E
:1002A60032F4EA85FB8505D1EA87FB874DE24030CB
:1002B60011F01F5F01C00B7F02C0D8D0E5D000FD52
:1002C60010C0151770F407FF08C002FF04C00B7FAB
:1002D600242F115001C020E301C020E2B3D05150B9
:1002E600F0CF312F01FF15C0303091F003FF05C06C
:1002F600EE81FF812591C5D005C0AE81BF812D91CC
:10030600AE83BF839FD0503009F051503150ECCFAF
:1003160047C020E3EE81FF810CD1E887F987EE81A3
:10032600FF813296AED0E885F985AA85BB85AE17E2
:10033600BF0750F02F5FA885B985EA85FB85EA1BC4
:10034600FB0BEA87FB87EFCF2A3328F003FF02C0B7
:10035600295F01C0295D04FD19C0213320F4A88559
:10036600B985119709F409C0531710F000FF01C0B1
:1003760011C020E207FF0AC020E3006102FF06C0A9
:100386000B7F4A936DD0503009F051505BD05030FE
:1003960009F051503150A885B985129708F0B9CFA8
:1003A60000FF07C0503029F05150E0E2EA9358D0E0
:1003B600F9CF10E0F9CEAC85BD85B7D0CAD064962A
:1003C6000895FF92F82E2697C1D0DE0114966DD0BF
:1003D6008D01E0E0EC83ED83EE83EF83DE0118967A
:1003E60064D0A3D029D01A930A93E1ECF0E024D08C
:1003F600DE011896CFDEB1D02896FF9008951FD063
:10040600A991B991EE27FF276D91662311F03196D8
:10041600FBCF089514D0AA27BB27E991F99105903F
:10042600002011F01196FBCFFD01089546D085D02E
:1004360084E0C7DF26960895FA93EA930895BA935F
:10044600AA9308952A93AD85BE85EF85F889099507
:100456000895E889F98908953497E88BF98B08950A
:10046600AD85BE85EF85F88909950895F2DFF4CF4D
:10047600A889B989149659D0EE83FF83AE81BF81CE
:100486000895EE83FF830895A889B98914964DD0FF
:10049600EA87FB870895109639F08AEF90E0019776
:1004A600F1F7A8951197C9F708950024AF0DB01D6F
:1004B6000895F195E195F04008956F2F660F660B4C
:1004C600762F0895FA9FF02DEB9FF00DEA9FE02D11
:1004D600F10D08951CD0F6DF0EF4EBDF089500242D
:1004E600112490E1AA0FBB1F001C111C0E1A1F0A33
:1004F60018F40E0E1F1E01C0A1609A9599F7FD0112
:10050600D001089504D0EBDF0EF4D3DF0895E8940C
:10051600F7FF02C0CEDF6894B7FF06C0A095B0957E
:10052600119600F8039400FA0895ED91FC91119745
:1005360008950590F491E02D08957A936A93FA93BD
:10054600EA9308955A934A933A932A931A930A93ED
:1005560008955D814C813B812A8119810881089526
:00000001FF
