:0E000000A1C2FECFFDCFFCCFFBCFFACFF9CFD0
:10000E00F8CFF7CF95C5F5CFF4CFF3CFF2CFF1CF31
:10001E00F0CFEFCFEECFEDCF000000010000000AD1
:10002E000000001C0000003E0000007C000000F8F4
:10003E00000001F0000003E0000007C000000F8088
:10004E0000007F000000BE0000017C000001FC00EB
:10005E000001F4000002E8000004700000088000B7
:10006E000011000000220000004400000088000083
:10007E000110000002200000044000000880000073
:10008E00110000000A000000140000002000000013
:10009E0040000000000000000003F0000007FC001C
:1000AE00000FFE00001FFE00001FFE00001FFE00DE
:1000BE00001FFC00001FF800001FF0003C0FE000C6
:1000CE007E0FE0007F07C1F8FF8427FCFFE81FFECC
:1000DE00FFF18FFFFFF3CFFFFFF3CFFFFFF18FFF96
:1000EE007FF817FF3FE421FF1F83E0FE0007F07E3D
:1000FE000007F03C000FF800001FF800003FF8006A
:10010E00007FF800007FF800007FF800007FF0000D
:10011E00003FE000000FC0000000000000000000E3
:10012E00000000000000000007F000001FFFF000BC
:10013E001FFFFE00383FFEFE383FFE00783FFEFEFA
:10014E00783FFE00383FFEFE383FFE001FFFF800EE
:10015E001FFFC00007FE000007F0000007F00000C0
:10016E0007F0000007F0000007F0000007F00000A5
:10017E0007F0000007F0000007F0000007F0000095
:10018E0007F000000000000000000000000000006A
:10019E000000000000000000000000000000005FF2
:1001AE0000000007000700147F147F14242A7F2A02
:1001BE0012231308646236495522500005030000CD
:1001CE00001C2241000041221C00082A1C2A08089B
:1001DE00083E0808005030000008080808080030E3
:1001EE0030000020100804023E5149453E00427F77
:1001FE00400042615149462141454B311814127F4E
:10020E001027454545393C4A4949300171090503D6
:10021E003649494936064949291E0036360000003E
:10022E0056360000000814224114141414144122EE
:10023E001408000201510906324979413E7E11111E
:10024E00117E7F494949363E414141227F4141223B
:10025E001C7F494949417F090901013E4141513203
:10026E007F0808087F00417F41002040413F017F09
:10027E00081422417F404040407F0204027F7F04E9
:10028E0008107F3E4141413E7F090909063E41511A
:10029E00215E7F09192946464949493101017F01ED
:1002AE00013F4040403F1F2040201F7F2018207FED
:1002BE006314081463030478040361514945430031
:1002CE00007F4141020408102041417F00000402DA
:1002DE0001020440404040400001020400205454FA
:1002EE0054787F4844443838444444203844444881
:1002FE007F3854545418087E090102081454543C93
:10030E007F0804047800447D40002040443D0000F6
:10031E007F10284400417F40007C041804787C083C
:10032E0004047838444444387C1414140808141413
:10033E00187C7C080404084854545420043F44405C
:10034E00203C4040207C1C2040201C3C4030403C47
:10035E0044281028440C5050503C4464544C4400E3
:10036E000836410000007F00000041360800000002
:10037E0000000000000000007E1111117E7F454537
:10038E0045397F494949367F01010103C07E417FCE
:10039E00C07F4949494177087F0877224949493644
:1003AE007F2010087F7F2013087F7F081422414092
:1003BE003E01017F7F0204027F7F0808087F3E41D5
:1003CE0041413E7F0101017F7F090909063E4141FE
:1003DE00412201017F0101274848483F1E217F210C
:1003EE001E63140814637F40407FC00F1010107FEF
:1003FE007F407C407F7F407C40FF017F4848307FBC
:10040E004830007F7F48484830224949493E7F089E
:10041E003E413E760909097F20545454787C545449
:10042E0054247C545454287C0404040CC078447C1A
:10043E00C038545454186C107C106C2844545428F2
:10044E007C2010087C7C2112087C7C1010284440F3
:10045E003804047C7C0810087C7C1010107C384416
:10046E004444387C0404047C7C141414083844443A
:10047E00442004047C04040C5050503C18247C246A
:10048E001844281028447C40407CC00C1010107C6E
:10049E007C4078407C7C407840FC7C545050207CE2
:1004AE005020007C7C5050502028445454387C10EE
:1004BE00384438483414147C1027E80364000A00CA
:1004CE000100001000011000010000006164635F74
:1004DE00743D2025690D0A00736F6C6465723131AD
:1004EE003D2025690D0A00204C4E534F4C44455279
:1004FE002000506F7765726564206279204C6E4BD8
:10050E004F78202620526164696F566574616C00C5
:10051E0001002D4E414E00494E46000002000400DF
:10052E00D8040B006001F5041E006B0100050100EC
:10053E0089011E050000F894EE27ECBBF1E0FBBF2D
:10054E00EBBFE5BF8DE0A2E0BB27ED938A95E9F7FF
:10055E0080E094E0A0E6ED930197E9F7EAE2F5E09A
:10056E0085919591009761F0A591B59105901590A3
:10057E00BF01F00105900D920197E1F7FB01F0CF5D
:10058E00EFE5EDBFE4E0EEBFC0E6D1E0D2C2AA9344
:10059E008BD3E078E03809F4979A89D3E074E0348D
:1005AE0009F4979A84D3E072E03209F4979A7FD3D4
:1005BE00E071E03109F4979A7AD3E870E83009F4E3
:1005CE00979A75D3E470E43009F4979A70D3E27079
:1005DE00E23009F4979A6BD3E170E13009F4979AFF
:1005EE00969A969821960895AA9396989798E98147
:1005FE00E71529F4772011F45DD309F007C0959A19
:10060E0059D311F0949A01C094989598A881BFDFA0
:10061E007980979835C0E1B3E86FE1BB9398A4EF6A
:10062E00B1E0DDD3939AA4EFB1E047D3A1E049D373
:10063E00A6E34BD3A0E045D3A1E14BD3AAE345D328
:10064E00A5E047D3A9E2D0DF089547D3488059806B
:10065E0047D3A6E3C9DFF201309719F444D3A0E0E3
:10066E000EC044D319F43FD3A0E409C043D319F408
:10067E003AD3A0EC04C042D319F435D3A0E8B4DFCA
:10068E0022960895AA932CD3AAE21FD3AC811DD330
:10069E00AB8117D3ABE219D3AA8117D3A98111D39A
:1006AE00ACE2A2DFEBC019D3EB81EA93EC81EA93C3
:1006BE00EC81EA93AD81E6DF949A15D3AA8105D336
:1006CE00A98192DFDBC0AA93A5D3AE85A03818F01E
:1006DE00EE85E054EE8700E0053008F071C0EE853F
:1006EE00F0E0B097A5E0B0E08DD3EA55FE4FDF0104
:1006FE00E02F08D3149120E0EF81E21709F44CC0EB
:10070E0041E0F201309711F0F5D281F4E22FAD8580
:10071E00FDD2E22FAE85FAD2EE85EA93E985EE0F91
:10072E00EE0FEE0FAF85AE0FA15014C0DFD211F059
:10073E00E5D289F4ED85EA93EF81EE0FEE0FEE0F21
:10074E00AE85AE0FA150AA93E22FAE85DFD2E22F77
:10075E00AF85AE0F97DF949A30E03830D8F45E81D3
:10076E005030A9F0E42FE12341F0BDD2EB85FC859A
:10077E0044D3AE2FAAD2AB8507C0B5D2E985FA8590
:10078E003CD3AE2FA2D2A9852FDF5150E9CF440F13
:10079E003F5FE3CF2F5FB0CFF201309711F0AAD2B7
:1007AE0029F4EF81AD85EA0FED8708C09FD211F0D5
:1007BE00A5D221F4EF81AC85EA0FEC870F5F8CCFC9
:1007CE0030D32F960895AA931A93EA81E03011F44C
:1007DE00E1E0EA836FD211F4E1E0E983F20186D21F
:1007EE0011F08CD221F41F81E885EF83188791D206
:1007FE0090D28FD291D290D28CD2A98564DF1881FB
:10080E002A960895AA931A9310E0EA81E03011F423
:10081E00E1E0EA834FD211F4E1E0E98382D2E030E5
:10082E0091F07FD2EA93A6E01A02F001AB81EA02C0
:10083E00F001AA856BD26DD26FD26ED26AD2A98523
:10084E00C2DF1F5FEBCF18812D96089546D2E6D2F8
:10085E0047D2E3E8EA9344D2AFEA14DF949A00E079
:10086E0010E0003CEAE51E0740F43DD2AC812DD2EB
:10087E00AB81BADE0F5F1F4FF4CFD7D22496089507
:10088E002CD26097C7D2F20131D211F037D261F477
:10089E00EA8DEE83EB8DEA8FEE81EB8FE88DEE83A2
:1008AE00E98DE88FEE81E98FA98DBB27EB8DF0E006
:1008BE00AE1BBF0BAC8BBD8BA88DBB27EA8DF0E0BA
:1008CE00AE1BBF0BAA8BBB8B33D2109721F4AA8918
:1008DE00BB89109709F005C0EB8DEA93EB8DEA9377
:1008EE0075C0E1E0F0E0EA87FB87E887F987AD891C
:1008FE00AA234AF4EC89FD897CD2EC8BFD8B1BD2AA
:10090E00EA87FB8707C0EC89FD89309719F4E0E090
:10091E00EA87EB87AB89AA233AF410D26AD2EA8B24
:10092E00FB8B09D2E887F98709D202D20AD254F496
:10093E00E0E0EF834C895D8901D2EC8BFD8B4A8B15
:10094E005B8B02C0E1E0EF83F9D1EE0FFF1FEE8764
:10095E00FF87EED1EE85FF85EA1BFB0BAF01E8D1D9
:10096E00FA01EA1BFB0BEC87FD870B8D11272A8DF5
:10097E003327E0E0E88BE98BEC89FD89A889B989FA
:10098E00E0D114F50A932A93A88DB98D8CDEEF81F0
:10099E00E03011F0D9D101C0DCD155232AF4EE8517
:1009AE00FF854E0F5F1F0AC0EC85FD854E0F5F1F42
:1009BE00EF81E03011F0CDD101C0C6D1E889F989BF
:1009CE003196E88BF98BD8CF0A932A93A88DB98DDF
:1009DE006ADE27D26C96089580D11ED230E00C8547
:1009EE00AC85BB27EA858ED1A02FB0E0AAD10CF042
:1009FE0060C01D85AD85BB27EB8584D1A12FB0E0EE
:100A0E00A0D10CF054C02597A9D1E491E07819F04B
:100A1E00A9D1ACD102C0A6D1ACD145DE9FD1E49113
:100A2E00E07419F09FD1A2D102C09CD1A2D13BDEBD
:100A3E0095D1E491E07219F095D198D102C092D17E
:100A4E0098D131DE8BD1E491E07119F08BD18ED13A
:100A5E0002C088D18ED127DE81D1E491E87019F0E1
:100A6E0081D184D102C07ED184D11DDE77D1E491B3
:100A7E00E47019F077D17AD102C074D17AD113DE35
:100A8E006DD1E491E27019F06DD170D102C06AD1CE
:100A9E0070D109DE63D1E491E17019F063D166D1B2
:100AAE0002C060D166D1FFDD3F5F2596A3CF0F5FF9
:100ABE0097CFB9D12E9608955FD16BD1EAE0F0E0D1
:100ACE006DD1E0EEF7E017C057D1E8E7F0E066D160
:100ADE00EAE0F0E00CC050D15CD15BD1E0EEF7E083
:100AEE000AC04AD1E8E7F0E059D1E2E3F0E0FA9328
:100AFE00EA93E0E0F8EFFA93EA9353D1259608953E
:100B0E00ECD02497EC81FD8149D1DE0112969FD065
:100B1E00E5E2EB83E0E0EC83FE0140D13AD1EAE579
:100B2E00F0E03CD1E0E0F8EF39D13BD126960895C4
:100B3E001895E7E0E7BBE0E0E8BBE4BBE5BBE8EF18
:100B4E00E1BBE0E0E2BBE5E0E3BFE0E0E2BFE3EF04
:100B5E00EFBDE1E0EEBDE0E0EDBDECBDE7BDE6BD15
:100B6E00EBBDEABDE9BDE8BDE2BDE5BDE4BDE3BD5B
:100B7E00E1E0E9BFE0E0E5BFEBB9E8E0EAB9E6E8BD
:100B8E00E0BDE0E0E0BDECE0E9B9E0E8E8B9E0E0C6
:100B9E00E7B9E7E8E6B9E0E0E0BFEDB9E6BF789483
:100BAE003ADDAAE5B0E051DDE0E6F1E000D1F1D0AA
:100BBE00C2D0FDD0E3E0EA93A3E024DEA8EEB3E0DA
:100BCE000ED1AFEFBFEF42DE8BD0E5E0F4D0F3D025
:100BDE00F5D0A6E2B0E000DF83D0E8E2F5D0E8E29F
:100BEE00F7D07ED0EDE2E7D0E6D0E8D0A6E2B1E0D5
:100BFE00F3DE76D0E0E5E8D0E0E5EAD0E2E0EA9395
:100C0E00E5E5D9D0D8D0DAD0A6EAB0E0E5DE68D0F6
:100C1E00E8E7DAD0E8E7DCD0EBE6F1E0C8D0EBE7C6
:100C2E00F0E0BCD0ECE1FDE5B9D085D0B7D05BD01B
:100C3E00A1E0E8DDD1D040DFCFD046DFCDD04BDF15
:100C4E00CBD04FDFA4E6B0E05BDFFFCFFFCF45D0C8
:100C5E00A991B991E991F99130962AF4E095F09520
:100C6E0031966DE26D93E89480E197E20DD088EEB7
:100C7E0093E00AD084E6992707D08AE005D06E2F3C
:100C8E0010D066276C9308956627E817F90720F0B1
:100C9E006395E81BF90BC9F7662311F416F0089556
:100CAE006894605D6D9308959798E8810895969A7B
:100CBE009698FACFE981E030089591D0E0E0EA937A
:100CCE00089592DCE0E0EA9308958EDCE1E0EA9389
:100CDE0008958ADCA4E1B0E0F0CFBA93AA93089508
:100CEE00E0E0EA930895E1E0EA930895EA35A0E0A2
:100CFE00FA070895E43BA0E0FA070895EE30A1E06C
:100D0E00FA070895F0E0EA0FFB1F0895EA0FEA9341
:100D1E000895E985EA930895E885F985FA93EA93AB
:100D2E000895AB85BC85EE27A10FBE1FEC910895EB
:100D3E00AC89BD890895EFEFFFEF0895EA89FB892D
:100D4E000895AE17BF070895EA85FB850E0F1F1F86
:100D5E000895E885F9852E0F3F1F0895E32FA98585
:100D6E00BA85D0CF0A931A9313950895AF85B88993
:100D7E000895AD85BE850895B0DF2397EB81FC8184
:100D8E00FA93EA93DE01129662DFFE01FA93EA937A
:100D9E000895E2E3F0E0FA93EA930895FA93EA9362
:100DAE000895C9DFFBDFE3E0EA93A3E02BCDF6DF86
:100DBE00E0E0F0E0F3CFEA93E0E20895EA93EFE1AA
:100DCE00F0E0ECDFB8DFEACFEA93EFEAEA930895BA
:100DDE00EA93A0E0B0E054CDA0EEB1E008951096F5
:100DEE0039F080ED97E00197F1F7A8951197C9F7C3
:100DFE000895F195E195F0400895EF2FFF27E7FD57
:100E0E00FFEF0895FA9FF02DEB9FF00DEA9FE02D76
:100E1E00F10D08955A934A933A932A931A930A938B
:100E2E0008955D814C813B812A8119810881089545
:00000001FF
