:10000000ACC2FECFFDCFFCCFFBCFFACFF9CFF8CFFC
:10001000F7CFF5C5F5CFF4CFF3CFF2CFF1CFF0CFD7
:10002000EFCFEECFEDCF000000010000000A00008E
:10003000001C0000003E0000007C000000F80000F2
:1000400001F0000003E0000007C000000F80000086
:100050007F000000BE0000017C000001FC000001E8
:10006000F4000002E80000047000000880000011A5
:100070000000002200000044000000880000011081
:100080000000022000000440000008800000110071
:1000900000000A00000014000000200000004000E2
:1000A0000000000000000003F0000007FC00000F4B
:1000B000FE00001FFE00001FFE00001FFE00001FCC
:1000C000FC00001FF800001FF0003C0FE0007E0F56
:1000D000E0007F07C1F8FF8427FCFFE81FFEFFF167
:1000E0008FFFFFF3CFFFFFF3CFFFFFF18FFF7FF80D
:1000F00017FF3FE421FF1F83E0FE0007F07E0007AB
:10010000F03C000FF800001FF800003FF800007FEF
:10011000F800007FF800007FF800007FF000003F4B
:10012000E000000FC0000000000000000000000020
:1001300000000000000007F000001FFFF0001FFF9C
:10014000FE00383FFEFE383FFE00783FFEFE783F5F
:10015000FE00383FFEFE383FFE001FFFF8001FFF85
:10016000C00007FE000007F0000007F0000007F0E5
:10017000000007F0000007F0000007F0000007F0A3
:10018000000007F0000007F0000007F0000007F093
:10019000000000000000000000000000000000005F
:1001A000000000000000000000000000005F0000F0
:1001B0000007000700147F147F14242A7F2A1223CB
:1001C0001308646236495522500005030000001CE4
:1001D0002241000041221C00082A1C2A0808083E6F
:1001E00008080050300000080808080800303000F7
:1001F0000020100804023E5149453E00427F400065
:1002000042615149462141454B311814127F102754
:10021000454545393C4A494930017109050336498C
:10022000494936064949291E00363600000056362F
:10023000000000081422411414141414412214085C
:10024000000201510906324979413E7E1111117EA9
:100250007F494949363E414141227F4141221C7F2D
:10026000494949417F090901013E414151327F0815
:1002700008087F00417F41002040413F017F081472
:1002800022417F404040407F0204027F7F040810EB
:100290007F3E4141413E7F090909063E4151215EB1
:1002A0007F09192946464949493101017F01013F2A
:1002B0004040403F1F2040201F7F2018207F6314B4
:1002C0000814630304780403615149454300007F27
:1002D0004141020408102041417F00000402010254
:1002E000044040404040000102040020545454782F
:1002F0007F484444383844444420384444487F3894
:1003000054545418087E090102081454543C7F08C0
:1003100004047800447D40002040443D00007F10EC
:10032000284400417F40007C041804787C080404C1
:100330007838444444387C14141408081414187C85
:100340007C080404084854545420043F4440203C92
:100350004040207C1C2040201C3C4030403C442835
:100360001028440C5050503C4464544C440008360F
:10037000410000007F00000041360800000000003E
:100380000000000000007E1111117E7F45454539B7
:100390007F494949367F01010103C07E417FC07F0B
:1003A0004949494177087F087722494949367F20E2
:1003B00010087F7F2013087F7F08142241403E01F0
:1003C000017F7F0204027F7F0808087F3E41414190
:1003D0003E7F0101017F7F090909063E414141221B
:1003E00001017F0101274848483F1E217F211E63EC
:1003F000140814637F40407FC00F1010107F7F40AF
:100400007C407F7F407C40FF017F4848307F483000
:10041000007F7F48484830224949493E7F083E4195
:100420003E760909097F20545454787C545454244E
:100430007C545454287C0404040CC078447CC03898
:10044000545454186C107C106C28445454287C204C
:1004500010087C7C2112087C7C1010284440380451
:10046000047C7C0810087C7C1010107C38444444C8
:10047000387C0404047C7C1414140838444444205C
:1004800004047C04040C5050503C18247C24184470
:10049000281028447C40407CC00C1010107C7C400C
:1004A00078407C7C407840FC7C545050207C50202C
:1004B000007C7C5050502028445454387C103844E0
:1004C00038483414147C1027E80364000A00010043
:1004D00000100001100001000000000000000000FA
:1004E0000000000025692020002569252520200026
:1004F000204C4E534F4C4445522000506F7765724C
:100500006564206279204C6E4B4F78202620526122
:1005100064696F566574616C004F46462020202048
:10052000000001002D4E414E00494E4600000100E2
:100530000200D8040A000400DA040B006001F00491
:100540001E006B01FB0408008901190508009101D8
:10055000190501009D0122050000F894EE27ECBB6F
:10056000F1E0FBBFEBBFE5BF8DE0A2E0BB27ED9361
:100570008A95E9F780E094E0A0E6ED930197E9F72A
:10058000EEE2F5E085919591009761F0A591B59126
:1005900005901590BF01F00105900D920197E1F7CC
:1005A000FB01F0CFEFE5EDBFE4E0EEBFC0E6D1E048
:1005B0008CC3AA93BED5E078E03809F4979ABCD5ED
:1005C000E074E03409F4979AB7D5E072E03209F4A8
:1005D000979AB2D5E071E03109F4979AADD5E870F9
:1005E000E83009F4979AA8D5E470E43009F4979AB2
:1005F000A3D5E270E23009F4979A9ED5E170E1301C
:1006000009F4979A969A96985EC3AA9396989798A3
:10061000E981E71529F4772011F491D509F007C095
:10062000959A8DD511F0949A01C094989598A881C7
:10063000C0DF7980979835C0E1B3E86FE1BB93984C
:10064000A4EFB1E09FD6939AA4EFB1E07BD5A1E0EF
:100650007DD5A6E37FD5A0E079D5A1E17FD5AAE33A
:1006600079D5A5E07BD5A9E2D0DF08957BD5488078
:1006700059807BD5A6E3C9DFF201309719F478D50C
:10068000A0E00EC078D519F473D5A0E409C077D5E1
:1006900019F46ED5A0EC04C076D519F469D5A0E89C
:1006A000B4DF22960895AA9360D5AAE253D5AC810F
:1006B00051D5AB814BD5ABE24DD5AA814BD5A981A4
:1006C00045D5ACE2A2DFEAC04DD5EB81EA93EC81DF
:1006D000EA93EC81EA93AD81E6DF949A49D5AA8149
:1006E00039D5A98192DFDAC0AA93D4D7AE85A038D4
:1006F00018F0EE85E054EE8700E0053008F070C099
:10070000EE85F0E0B097A5E0B0E043D7EA55FE4FA4
:10071000DF01E02F3CD5149120E0EF81E21709F4CE
:100720004BC041E0F201309711F029D581F4E22F5E
:10073000AD8531D5E22FAE852ED5EE85EA93E985DC
:10074000EE0FEE0FEE0FAF85AE0FA15014C013D514
:1007500011F019D589F4ED85EA93EF81EE0FEE0FD4
:10076000EE0FAE85AE0FA150AA93E22FAE8513D542
:10077000E22FAF85AE0F97DF949A30E03830D0F497
:100780005E815030A1F0E42FE12341F0F1D4EB85FC
:10079000FC85F5D6AE2FDED4AB8506C0E9D4FED4F9
:1007A000EED6AE2FD7D4A98530DF5150EACF440F13
:1007B0003F5FE4CF2F5FB1CFF201309711F0DFD46C
:1007C00029F4EF81AD85EA0FED8708C0D4D411F08C
:1007D000DAD421F4EF81AC85EA0FEC870F5F8DCF7F
:1007E00060D72F960895AA931A93EA81E03011F406
:1007F000E1E0EA83A4D411F4E1E0E983F201BBD49F
:1008000011F0C1D421F41F81E885EF831887C9D482
:10081000C8D4C7D4C9D4C8D4C4D4A98565DF1881C5
:100820002A960895AA931A9310E0EA81E03011F411
:10083000E1E0EA8384D411F4E1E0E983BAD4E03062
:1008400091F0B7D4EA93A6E01A02F001AB81EA0274
:10085000F001AA85A0D4A5D4A7D4A6D4A2D4A985F2
:10086000C2DF1F5FEBCF18812D9608957BD416D77A
:100870007CD4E3E8EA9379D4AFEA15DF949A00E0F8
:1008800010E0003CEAE51E0740F472D4AC8162D46B
:10089000AB81BBDE0F5F1F4FF4CF07D724960895BF
:1008A00061D46097F7D6F20166D411F06CD461F48C
:1008B000EA8DEE83EB8DEA8FEE81EB8FE88DEE8390
:1008C000E98DE88FEE81E98FA98DBB27EB8DF0E0F4
:1008D000AE1BBF0BAC8BBD8BA88DBB27EA8DF0E0A8
:1008E000AE1BBF0BAA8BBB8B6BD4109721F4AA89CC
:1008F000BB89109709F005C0EB8DEA93EB8DEA9365
:1009000072C0E1E0F0E05FD4E1E0F0E0E887F98771
:10091000AD89AA2342F4EC89FD8925D6EC8BFD8BA9
:1009200055D451D407C0EC89FD89309719F4E0E023
:10093000EA87EB87AB89AA233AF44BD414D6EA8B27
:10094000FB8B44D4E887F98744D43AD445D454F493
:10095000E0E0EF834C895D893CD4EC8BFD8B4A8BC6
:100960005B8B02C0E1E0EF8334D4EE0FFF1FEE8714
:10097000FF8726D4EE85FF85EA1BFB0BAF0120D451
:10098000FA01EA1BFB0BEC87FD870B8D11272A8DE3
:100990003327E0E0E88BE98BEC89FD8920D41CD477
:1009A00004F50A932A93A88DB98D8EDEEF81E0308D
:1009B00011F018D401C01BD455232AF4EE85FF850D
:1009C0004E0F5F1F0AC0EC85FD854E0F5F1FEF8144
:1009D000E03011F00CD401C005D40ED431960FD400
:1009E000DBCF0A932A93A88DB98D6EDE5AD66C960A
:1009F00008954BD607D4E889F9896A897B89AED5F1
:100A00007F936F93FF93EF9302D435D6A7D5AF9121
:100A1000BF918F919F91E5D57F936F93FF93EF9354
:100A2000F1D3E885F9856A857B8598D5AF91BF912B
:100A30008F919F9100D6EBD38CD5E5E0F0E060E09C
:100A400070E0F9D5A5E0B0E080E090E0CAD52FC312
:100A500089D322D630E00C85AC85BB27EA8597D3B5
:100A6000A02FB0E0B9D30CF05EC01D85AD85BB27CB
:100A7000EB858DD3A12FB0E0AFD30CF052C0CCD317
:100A8000E491E07819F0CCD3CFD302C0C9D3CFD34F
:100A90001BDEC2D3E491E07419F0C2D3C5D302C007
:100AA000BFD3C5D311DEB8D3E491E07219F0B8D347
:100AB000BBD302C0B5D3BBD307DEAED3E491E071A4
:100AC00019F0AED3B1D302C0ABD3B1D3FDDDA4D303
:100AD000E491E87019F0A4D3A7D302C0A1D3A7D39F
:100AE000F3DD9AD3E491E47019F09AD39DD302C058
:100AF00097D39DD3E9DD90D3E491E27019F090D3C0
:100B000093D302C08DD393D3DFDD86D3E491E1701C
:100B100019F086D389D302C083D389D3D5DD3F5F53
:100B2000A5CF0F5F99CFBFD52E96089583D39BD3C2
:100B3000E0EEF7E032C016D321979AD39DD3ED8132
:100B4000FE819FD3A6D38FD3E0E0F8EFA7D3A9D33C
:100B5000239608956FD3ABD3E0EEF7E01EC002D327
:100B6000259786D389D31AD38CD393D3A0D3E0E02F
:100B7000F8EF13C0F7D225977BD3E9EEF4E08ED3DC
:100B80000DD302D57DD584E094D22896E0E0EC83A5
:100B90006FD38DD3EAE5F0E08DD3FA93EA9381D356
:100BA00027960895A6E08AD393D34F01A7E086D372
:100BB000EEEEF2E060E070E09AD3A0EEB1E080E00B
:100BC00090E017DF5F01A0E079D382D36F01A1E04D
:100BD00075D37ED3E0939901F0939A01A2E06ED38E
:100BE000EFEFF3E060E070E082D3A4E6B0E080E0F5
:100BF00090E0FFDEE0939B01F0939C0108950A9240
:100C00001A92FA926A937A938A939A93AA93BA93CE
:100C1000EA93FA93EFB7EA936394E6E0E61519F4E2
:100C200066240FD025D0E991EFBFF991E991B991F0
:100C3000A9919991899179916991F9901990099067
:100C4000189524FE02C09B9B01C002C0E1E02E2645
:100C500025FE02C09C9B01C002C0E2E02E26E89463
:100C60009B99689424F8E8949C99689425F80895D1
:100C700020FE1AC043D3169714F0ECE3E8BD3ED330
:100C80001B9714F0E4E6E8BD39D3559714F0E0EA79
:100C9000E8BD34D3999714F0E8ECE8BDC814D90442
:100CA00014F4E0E0E8BD02C0E0E0E8BD0895AA93D6
:100CB000E881E7B98BE18A95F1F7369A349BFECF4C
:100CC000349AE4B1F5B121960895E7E0E7BBE0E09E
:100CD000E8BBE4BBE5BBE8EFE1BBE0E0E2BBE5E09D
:100CE000E3BFE0E0E2BFE1EFEFBDE5E0EEBDE0E055
:100CF000EDBDECBDE7BDE6BDEBBDEABDE9BDE8BDC0
:100D0000E2BDE5BDE4BDE3BDE1E0E9BFE0E0E5BF94
:100D1000EBB9E8E0EAB9E6E8E0BDE0E0E0BDECE030
:100D2000E9B9E0E8E8B9E0E0E7B9E7E8E6B9E0E02A
:100D3000E0BFEDB9E6BF80DCAAE5B0E097DCE0E615
:100D4000F1E0B8D2ABD2B3D241D2B4D2A7D2E3E071
:100D5000EA93A3E067DDA8EEB3E014D3AFEFBFEFF3
:100D600085DD03D2E5E0CED2CDD2CFD2A6E2B0E08F
:100D70006FDEFBD1E8E2CFD2E8E2D1D2F6D1EDE2EC
:100D8000C1D2C0D2C2D2A6E2B1E062DEEED1E0E5CD
:100D9000C2D2E0E5C4D2E2E0EA93E5E5B3D2B2D252
:100DA000B4D2A6EAB0E054DEE0D1E8E7B4D2E8E796
:100DB000B6D2EBE6F1E07ED271D2EBE7F0E06ED294
:100DC000ECE1FDE56BD202D269D2D2D1A1E02ADDFD
:100DD0007894E8DEE8B5F0E0D7D344D3DF01CB0167
:100DE000E3E3F3E363E270E46BD305D3DF01C2DE38
:100DF00020FE05C0D6019ADED4019DDE06C0E9E8DA
:100E0000F1E04CD254D22FD28ED221FE0CC0A09150
:100E10009901B0919A019EDEE0E09B99E1E0F0E05B
:100E2000DF019DDE06C0E1E9F1E038D240D23FD2D9
:100E30007AD2CFCFFFCF96D131D479D2129613D4B4
:100E40003097F1F074D276D28F01309761F0023092
:100E5000E0E01E0770F0F80131978F01AA81BB8195
:100E60001496ED93FC9363D2129667D23197AC81BE
:100E7000A0835DD2F8D3FF2312F059D25ED204C012
:100E800056D2A4D1ED93FC9310D4259608956AD13F
:100E9000269700D410E0AC85BD85E0E0F0E0ED934E
:100EA000FC9397D13196EA8BFB8B3197E4912E2FEF
:100EB000E03009F4F8C0E12FE03031F4253211F4CC
:100EC00011E001C040D2EEC0E130A1F4253211F4AE
:100ED0003AD2E7C012E040E000E02D3211F401E028
:100EE000E1C02B3211F44BE2DDC0203211F440E2BC
:100EF000D9C002C0E23039F450E013E0203311F4DD
:100F00000068D0C003C0E33009F0CCC0203310F03B
:100F10002A3308F007C0AAE05A9F502DE22FE05371
:100F20005E0FC0C0E22FE33631F414D265D1A48144
:100F3000AA9313D2B6C0E33731F40CD214D215D22F
:100F4000E1D01E2F08C0E03751F404D20CD20DD2EC
:100F5000E4D01E2F086002600F7730E02EC0E43628
:100F600011F0E93611F4046002C0E53729F4E6EC2B
:100F7000F4E000D215E00BC0E83511F4086003C0BE
:100F8000E83709F08EC0E0EDF4E0F4D114E002FFA0
:100F900011C0E0D1E8D117D1AB85AA232AF4EA85A4
:100FA000FB85E1D210D14DE2403011F01F5F01C04E
:100FB0000B7F03C0CFD1D7D106D100FD10C01517CC
:100FC00070F407FF08C002FF04C00B7F242F1150EC
:100FD00001C020E301C020E2B6D15150F0CF312F43
:100FE00001FF15C0303091F003FF05C0EE81FF8195
:100FF0002591C0D105C0AE81BF812D91AE83BF8345
:10100000A2D1503009F051503150ECCF41C020E313
:10101000EE81FF812CD3E887F987EE81FF8132963C
:10102000A9D1E885F98500D1D7D040F02F5FFFD056
:10103000EA85FB85EA1BFB0BC6D0F3CF2A3328F0E9
:1010400003FF02C0295F01C0295D04FD18C02133E0
:1010500018F4EDD0119709F409C0531710F000FFF0
:1010600001C011C020E207FF0AC020E3006102FFB7
:1010700006C00B7F4A9371D1503009F0515063D1B3
:10108000503009F051503150D2D0129708F0BFCFF4
:1010900000FF07C0503029F05150E0E2EA935DD1E3
:1010A000F9CF10E0FECEAC85BD85DDD2FAD26496D4
:1010B0000895FF92F82E2697EFD25FD1309711F462
:1010C00085D01CC0DE01169640D28D0156D152D17A
:1010D000E0E0E887E987DE011A9637D2C4D2DED095
:1010E0001A930A93EBE1F7E0D9D0DE011A96CFDE2E
:1010F0009F01AE81BF81E0E0EC93F901D4D22A9642
:10110000FF9008952FD0A991B991EE27FF276D91F7
:10111000662311F03196FBCF089524D0AA27BB2770
:10112000E991F9910590002011F01196FBCFFD0196
:1011300008959798E8810895969A9698FACFE9814C
:10114000E03008951FD1E0E0EA9308955EDAE0E030
:10115000EA9308955ADAE1E0EA93089556DAA4E1B1
:10116000B0E0F0CFBA93AA930895E0E0EA9308952F
:10117000E1E0EA930895EA35A0E0FA070895E43B38
:10118000A0E0FA070895EE30A1E0FA070895F0E034
:10119000EA0FFB1F0895EA0FEA930895E985FA859F
:1011A0000895E985EA930895E885F985FA93EA9325
:1011B0000895AB85BC85EE27A10FBE1FEC91089565
:1011C000AC89BD890895EA87FB870895EFEFFFEFAB
:1011D0000895EA89FB890895AE17BF070895A88985
:1011E000B9890895EA85FB850E0F1F1F0895E885CC
:1011F000F9852E0F3F1F0895E889F9890895E88B36
:10120000F98B0895AC85BD858E859F850895AC8149
:10121000BD818E819F810895E32FAC81BD81B7CFC1
:101220000A931A9313950895AA85BB850895A885F6
:10123000B985089597DF2597FE01FA93EA93E4EEC6
:10124000F4E0FA93EA93AADF9FD11AD284E031DF67
:101250002896E0E0EB83FE01FA93EA93E2E3F0E004
:10126000FA93EA930895EAE0F0E0FA93EA93089596
:10127000FE01FA93EA930895E4EEF4E0FA93EA9318
:10128000089582D1FDD184E014DF2896E0E0EB835D
:10129000EFCFEAE7F0E0FA93EA930895FA93EA933E
:1012A000089594DFFBDFE3E0EA93A3E0BBCAE2E347
:1012B000F0E0F4CFF3DFE0E0F0E00895F8DC66273B
:1012C0007727DED1E0E0F0E060E070E0D9D108956A
:1012D000EFEFF3E060E070E0D3D1E0E0F0E060E059
:1012E00070E0CED1A0EEB1E080E090E082CBC8D13A
:1012F000E0E0F0E060E070E0C3D10895D601A81905
:10130000B9090895EA93E0E20895EA93EFE1F0E085
:10131000C5DF5CDFC3CFEA93EFEAEA930895EA936F
:10132000A0E0B0E0BDCAE0E0F0E0B8DFBACFAA814B
:10133000BB810895149697D10895ED91FD91319652
:10134000FE93EE9308952A93AD85BE85EF85F889C7
:101350000995089551DF349752CFAD85BE85EF854D
:10136000F889099508953BDFE5CFEE83FF83AE81D1
:10137000BF810895EE83FF830895DE011C96E5D0BA
:1013800072D10895109639F080ED97E00197F1F74A
:10139000A8951197C9F70895552342F4503811F4D0
:1013A000E0FF04C03196691F791F6BF050E85727A2
:1013B00011F45F9373C05F3F31F0660F000C5795D7
:1013C0006795752F08955F9300200AF073C06CC075
:1013D00050E8192E1522880F991F9527550F8795CC
:1013E00050E8072E0522660F771F7527550F679562
:1013F0000895689401C0E8945F93F2DF703818F0A4
:101400007F3F08F44BC056E1571BAAF45195583062
:101410000EF4593030F0EFEFFFEF6FEF7FE777F921
:101420001AC077275523B9F0EE0FFF1F661F771FED
:101430005A95D1F710C07727583028F0EF2FF62FA4
:10144000672F5850F9CF552331F076956795F7956A
:10145000E7955A95D1F700200AF489D05F91089555
:10146000689401C0E894309760407040B1F0002467
:1014700026F0772312F400947AD0172E7EE1112003
:1014800032F07A95EE0FFF1F661F111CF9CFEF2F78
:10149000F62F612D5F938ADF5F910895EE27FF2776
:1014A000662777275F910895EFEFFFEF6FE77FEFF4
:1014B0005F910895EFEFFFEF6FE77FE75F9108958A
:1014C0005F9386DF703821F411200AF4EDCFF2CF5C
:1014D000903809F4E3CF01240894970B1BF4D4F35C
:1014E0000020F3CF792F1F932F933F934F93112415
:1014F0001127222733274427552790E2AE17BF072D
:101500008607410730F0AE1BBF0B860B410B0894DA
:1015100001C08894551F221F331F111CAA1FBB1F17
:10152000881F441F9A9551F7F901612D4F913F9102
:101530002F911F91662332F0550FEE1FFF1F661F7C
:101540007A9543F229DF5F9108950024AF0DB01D15
:101550000895AE0FBF1F861F971F0895EA1BFB0B50
:10156000680B790B0895F195E195F0400895F09599
:1015700060957095E195FF4F6F4F7F4F0895EF2F66
:10158000FF27E7FDFFEF08956F2F660F660B762F9D
:101590000895FA9FF02DEB9FF00DEA9FE02DF10DDD
:1015A00008957A9F702D6B9F700DF89F700DE99FC5
:1015B000700D6A9F602D710DFB9F600D711DE89F7E
:1015C000600D711D8827FA9FF02D610D781FEB9F2C
:1015D000F00D611D781FEA9FE02DF10D681F781F47
:1015E00008952ED0DEDF0EF4C2DF08953F934F93AF
:1015F0005F93002411244427552730E2AA0FBB1F14
:10160000881F991F001C111C441F551F0E1A1F0A0A
:10161000460B570B28F40E0E1F1E461F571F01C006
:10162000A1603A9559F7FD01BC01D001CA015F9153
:101630004F913F91089504D0D9DF0EF498DF0895BB
:10164000E89477FF02C093DF689497FF0BC00024F3
:10165000A095B095809590951196801D901D00F8ED
:10166000039400FA0895ED91FC9111970895059067
:10167000F491E02D0895E881F9816A817B810895D4
:101680007A936A93FA93EA9308959A938A93BA9312
:10169000AA9308955A934A933A932A931A930A93D2
:1016A00008955D814C813B812A81198108810895CB
:00000001FF
