:0C000000A8C2FECFFDCFFCCFFBCFFACF93
:10000C00F9CFF8CFF7CF91C5F5CFF4CFF3CFF2CF2F
:10001C00F1CFF0CFEFCFEECFEDCF0000000100001D
:10002C00000A0000001C0000003E0000007C0000E4
:10003C0000F8000001F0000003E0000007C0000021
:10004C000F8000007F000000BE0000017C0000015A
:10005C00FC000001F4000002E8000004700000083D
:10006C008000001100000022000000440000008805
:10007C000000011000000220000004400000088075
:10008C000000110000000A00000014000000200015
:10009C00000040000000000000000003F00000071A
:1000AC00FC00000FFE00001FFE00001FFE00001FE2
:1000BC00FE00001FFC00001FF800001FF0003C0FAA
:1000CC00E0007E0FE0007F07C1F8FF8427FCFFE80B
:1000DC001FFEFFF18FFFFFF3CFFFFFF3CFFFFFF109
:1000EC008FFF7FF817FF3FE421FF1F83E0FE00071F
:1000FC00F07E0007F03C000FF800001FF800003FF6
:10010C00F800007FF800007FF800007FF800007F07
:10011C00F000003FE000000FC000000000000000F5
:10012C000000000000000000000007F000001FFFAE
:10013C00F0001FFFFE00383FFEFE383FFE00783F08
:10014C00FEFE783FFE00383FFEFE383FFE001FFFEC
:10015C00F8001FFFC00007FE000007F0000007F0CA
:10016C00000007F0000007F0000007F0000007F0A7
:10017C00000007F0000007F0000007F0000007F097
:10018C00000007F00000000000000000000000006C
:10019C000000000000000000000000000000000053
:1001AC00005F00000007000700147F147F14242A4E
:1001BC007F2A122313086462364955225000050326
:1001CC000000001C2241000041221C00082A1C2AAD
:1001DC000808083E08080050300000080808080805
:1001EC00003030000020100804023E5149453E000A
:1001FC00427F400042615149462141454B31181420
:10020C00127F1027454545393C4A4949300171094F
:10021C0005033649494936064949291E0036360038
:10022C000000563600000008142241141414141453
:10023C0041221408000201510906324979413E7EDF
:10024C001111117E7F494949363E414141227F417E
:10025C0041221C7F494949417F090901013E414125
:10026C0051327F0808087F00417F41002040413F08
:10027C00017F081422417F404040407F0204027FEE
:10028C007F0408107F3E4141413E7F090909063E2B
:10029C004151215E7F0919294646494949310101DD
:1002AC007F01013F4040403F1F2040201F7F20180E
:1002BC00207F6314081463030478040361514945D7
:1002CC004300007F4141020408102041417F00009F
:1002DC00040201020440404040400001020400209E
:1002EC00545454787F484444383844444420384467
:1002FC0044487F3854545418087E09010208145499
:10030C00543C7F0804047800447D40002040443D68
:10031C0000007F10284400417F40007C04180478C2
:10032C007C0804047838444444387C1414140808B9
:10033C001414187C7C080404084854545420043FBA
:10034C004440203C4040207C1C2040201C3C403041
:10035C00403C44281028440C5050503C4464544CAD
:10036C0044000836410000007F00000041360800C0
:10037C00000000000000000000007E1111117E7FC3
:10038C00454545397F494949367F01010103C07E06
:10039C00417FC07F4949494177087F087722494905
:1003AC0049367F2010087F7F2013087F7F08142296
:1003BC0041403E01017F7F0204027F7F0808087FD5
:1003CC003E4141413E7F0101017F7F090909063E03
:1003DC004141412201017F0101274848483F1E212C
:1003EC007F211E63140814637F40407FC00F1010E0
:1003FC00107F7F407C407F7F407C40FF017F4848DE
:10040C00307F4830007F7F48484830224949493E78
:10041C007F083E413E760909097F20545454787C6C
:10042C00545454247C545454287C0404040CC07834
:10043C00447CC038545454186C107C106C284454B0
:10044C0054287C2010087C7C2112087C7C101028FD
:10045C0044403804047C7C0810087C7C1010107C10
:10046C0038444444387C0404047C7C141414083848
:10047C004444442004047C04040C5050503C182484
:10048C007C241844281028447C40407CC00C10105C
:10049C00107C7C4078407C7C407840FC7C545050F4
:1004AC00207C5020007C7C505050202844545438E0
:1004BC007C10384438483414147C1027E80364004A
:1004CC000A00010000100001100001000000256965
:1004DC002000256920200025692525006164635FC3
:1004EC00743D2025690D0A00736F6C64657231319F
:1004FC003D2025690D0A00204C4E534F4C4445526B
:10050C002000506F7765726564206279204C6E4BC9
:10051C004F78202620526164696F566574616C00B7
:10052C0001002D4E414E00494E46000002000400D1
:10053C00D8040B00600103051E006B010E050100C1
:10054C0089012C050000F894EE27ECBBF1E0FBBF11
:10055C00EBBFE5BF8DE0A2E0BB27ED938A95E9F7F1
:10056C0080E094E0A0E6ED930197E9F7E8E3F5E08D
:10057C0085919591009761F0A591B5910590159095
:10058C00BF01F00105900D920197E1F7FB01F0CF4F
:10059C00EFE5EDBFE4E0EEBFC0E6D1E0D5C2AA9333
:1005AC00ECD4E078E03809F4979AEAD4E074E034BB
:1005BC0009F4979AE5D4E072E03209F4979AE0D402
:1005CC00E071E03109F4979ADBD4E870E83009F473
:1005DC00979AD6D4E470E43009F4979AD1D4E270A7
:1005EC00E23009F4979ACCD4E170E13009F4979A8F
:1005FC00969A9698A7C2AA9396989798E981E71528
:10060C0029F4772011F4BFD409F007C0959ABBD414
:10061C0011F0949A01C094989598A881C0DF7980C4
:10062C00979835C0E1B3E86FE1BB9398A4EFB1E0C4
:10063C0090D5939AA4EFB1E0A9D4A1E0ABD4A6E3F2
:10064C00ADD4A0E0A7D4A1E1ADD4AAE3A7D4A5E092
:10065C00A9D4A9E2D0DF0895A9D448805980A9D49F
:10066C00A6E3C9DFF201309719F4A6D4A0E00EC0BE
:10067C00A6D419F4A1D4A0E409C0A5D419F49CD42F
:10068C00A0EC04C0A4D419F497D4A0E8B4DF22964B
:10069C000895AA938ED4AAE281D4AC817FD4AB8185
:1006AC0079D4ABE27BD4AA8179D4A98173D4ACE29E
:1006BC00A2DFEAC07BD4EB81EA93EC81EA93EC8174
:1006CC00EA93AD81E6DF949A77D4AA8167D4A981A5
:1006DC0092DFDAC0AA936ED5AE85A03818F0EE85FD
:1006EC00E054EE8700E0053008F070C0EE85F0E0D5
:1006FC00B097A5E0B0E049D5EA55FE4FDF01E02FF9
:10070C006AD4149120E0EF81E21709F44BC041E068
:10071C00F201309711F057D481F4E22FAD855FD4FC
:10072C00E22FAE855CD4EE85EA93E985EE0FEE0FF1
:10073C00EE0FAF85AE0FA15014C041D411F047D4C9
:10074C0089F4ED85EA93EF81EE0FEE0FEE0FAE8597
:10075C00AE0FA150AA93E22FAE8541D4E22FAF8504
:10076C00AE0F97DF949A30E03830D0F45E81503081
:10077C00A1F0E42FE12341F01FD4EB85FC85FBD4E1
:10078C00AE2F0CD4AB8506C017D42CD4F4D4AE2F1A
:10079C0005D4A98530DF5150EACF440F3F5FE4CF39
:1007AC002F5FB1CFF201309711F00DD429F4EF8106
:1007BC00AD85EA0FED8708C002D411F008D421F4FE
:1007CC00EF81AC85EA0FEC870F5F8DCFFAD42F96B3
:1007DC000895AA931A93EA81E03011F4E1E0EA83D8
:1007EC00D2D311F4E1E0E983F201E9D311F0EFD3B4
:1007FC0021F41F81E885EF831887F7D3F6D3F5D35F
:10080C00F7D3F6D3F2D3A98565DF18812A9608951C
:10081C00AA931A9310E0EA81E03011F4E1E0EA8344
:10082C00B2D311F4E1E0E983E8D3E03091F0E5D301
:10083C00EA93A6E01A02F001AB81EA02F001AA8564
:10084C00CED3D3D3D5D3D4D3D0D3A985C2DF1F5F16
:10085C00EBCF18812D960895A9D3B0D4AAD3E3E891
:10086C00EA93A7D3AFEA15DF949A00E010E0003CBE
:10087C00EAE51E0740F4A0D3AC8190D3AB81BBDE7C
:10088C000F5F1F4FF4CFA1D4249608958FD3609798
:10089C0091D4F20194D311F09AD361F4EA8DEE83E2
:1008AC00EB8DEA8FEE81EB8FE88DEE83E98DE88F8F
:1008BC00EE81E98FA98DBB27EB8DF0E0AE1BBF0B52
:1008CC00AC8BBD8BA88DBB27EA8DF0E0AE1BBF0BAC
:1008DC00AA8BBB8B99D3109721F4AA89BB8910974B
:1008EC0009F005C0EB8DEA93EB8DEA9372C0E1E061
:1008FC00F0E08DD3E1E0F0E0E887F987AD89AA2339
:10090C0042F4EC89FD8933D4EC8BFD8B83D37FD3FC
:10091C0007C0EC89FD89309719F4E0E0EA87EB8792
:10092C00AB89AA233AF479D322D4EA8BFB8B72D30A
:10093C00E887F98772D368D373D354F4E0E0EF837C
:10094C004C895D896AD3EC8BFD8B4A8B5B8B02C027
:10095C00E1E0EF8362D3EE0FFF1FEE87FF8754D3E6
:10096C00EE85FF85EA1BFB0BAF014ED3FA01EA1BA8
:10097C00FB0BEC87FD870B8D11272A8D3327E0E0CD
:10098C00E88BE98BEC89FD894ED34AD304F50A93A5
:10099C002A93A88DB98D8EDEEF81E03011F046D30D
:1009AC0001C049D355232AF4EE85FF854E0F5F1FF6
:1009BC000AC0EC85FD854E0F5F1FEF81E03011F012
:1009CC003AD301C033D33CD331963DD3DBCF0A931A
:1009DC002A93A88DB98D6EDEF4D36C960895E6D269
:1009EC00EBD330E00C85AC85BB27EA85F4D2A02F85
:1009FC00B0E016D30CF05EC01D85AD85BB27EB8532
:100A0C00EAD2A12FB0E00CD30CF052C01FD3E4916A
:100A1C00E07819F01FD322D302C01CD322D34ADEB4
:100A2C0015D3E491E07419F015D318D302C012D386
:100A3C0018D340DE0BD3E491E07219F00BD30ED334
:100A4C0002C008D30ED336DE01D3E491E07119F065
:100A5C0001D304D302C0FED204D32CDEF7D2E4912E
:100A6C00E87019F0F7D2FAD202C0F4D2FAD222DE30
:100A7C00EDD2E491E47019F0EDD2F0D202C0EAD2DA
:100A8C00F0D218DEE3D2E491E27019F0E3D2E6D2B0
:100A9C0002C0E0D2E6D20EDED9D2E491E17019F0B8
:100AAC00D9D2DCD202C0D6D2DCD204DE3F5FA5CFD5
:100ABC000F5F99CF88D32E960895D6D2DBD2EAE079
:100ACC00F0E0EAD2E0EEF7E013C0CED2E8D2EAE0F2
:100ADC00F0E00AC0C9D2CED2F0D2DED2E0EEF7E01E
:100AEC0007C0C2D2DCD2E9D2FA93EA93E0E0F8EF85
:100AFC00FA93EA93E5D22796089558D22497FE01EB
:100B0C00CBD2E3EEF4E0C8D2E885F98539D34DD3E6
:100B1C0084E0F3D12896FE01BFD2CFD2BDD2EAE554
:100B2C00F0E0D4D2CDD2269608951895AA93E881F8
:100B3C00E7B98BE18A95F1F7369A349BFECF349A5C
:100B4C00E4B1F5B121960895E7E0E7BBE0E0E8BB3E
:100B5C00E4BBE5BBE8EFE1BBE0E0E2BBE5E0E3BF13
:100B6C00E0E0E2BFE3EFEFBDE1E0EEBDE0E0EDBDC4
:100B7C00ECBDE7BDE6BDEBBDEABDE9BDE8BDE2BD40
:100B8C00E5BDE4BDE3BDE1E0E9BFE0E0E5BFEBB905
:100B9C00E8E0EAB9E6E8E0BDE0E0E0BDECE0E9B9A8
:100BAC00E0E8E8B9E0E0E7B9E7E8E6B9E0E0E0BFA3
:100BBC00EDB9E6BF789436DDAAE5B0E04DDDE0E6B0
:100BCC00F1E084D27AD286D281D2E3E0EA93A3E038
:100BDC001FDEA8EEB3E0BDD2AFEFBFEF3DDEE9D133
:100BEC00E5E07AD279D27BD257D2A6E2B0E0F7DE3A
:100BFC00E0D1E8E278D2E8E27AD2DBD1EDE26CD255
:100C0C006BD26DD249D2A6E2B1E0E9DED2D1E0E5F9
:100C1C006AD2E0E56CD2E2E0EA93E5E55DD25CD223
:100C2C005ED23AD2A6EAB0E0DADEC3D1E8E75BD214
:100C3C00E8E75DD2EBE6F1E049D2EBE7F0E02CD24D
:100C4C00ECE1FDE547D228D2B7D1A1E0E1DD53D2EA
:100C5C0034DF51D23ADF4FD23DDF4DD242DFA5E037
:100C6C00B0E04BDFA6E062DFDF012FDFA2E05EDF4A
:100C7C00DF0123DFACE2B1E06CD2F4CFFFCF96D131
:100C8C009DD23CD2129689D23097F1F037D239D21C
:100C9C008F01309761F00230E0E01E0770F0F80130
:100CAC0031978F01AA81BB811496ED93FC9326D2C8
:100CBC0012962AD23197AC81A08320D26ED2FF2318
:100CCC0012F01CD221D204C019D2A4D1ED93FC9302
:100CDC007CD2259608956AD126976CD210E0AC850B
:100CEC00BD85E0E0F0E0ED93FC9397D13196EA8B73
:100CFC00FB8B3197E4912E2FE03009F4F8C0E12FF3
:100D0C00E03031F4253211F411E001C003D2EEC011
:100D1C00E130A1F4253211F4FDD1E7C012E040E03E
:100D2C0000E02D3211F401E0E1C02B3211F44BE262
:100D3C00DDC0203211F440E2D9C002C0E23039F4F7
:100D4C0050E013E0203311F40068D0C003C0E3304E
:100D5C0009F0CCC0203310F02A3308F007C0AAE009
:100D6C005A9F502DE22FE0535E0FC0C0E22FE336A6
:100D7C0031F4D7D165D1A481AA93D6D1B6C0E337CB
:100D8C0031F4CFD1D7D1D8D1E1D01E2F08C0E03764
:100D9C0051F4C7D1CFD1D0D1E4D01E2F086002605E
:100DAC000F7730E02EC0E43611F0E93611F4046010
:100DBC0002C0E53729F4E6ECF4E0C3D115E00BC032
:100DCC00E83511F4086003C0E83709F08EC0E0ED97
:100DDC00F4E0B7D114E002FF11C0A3D1ABD117D10D
:100DEC00AB85AA232AF4EA85FB85C1D110D14DE24B
:100DFC00403011F01F5F01C00B7F03C092D19AD11C
:100E0C0006D100FD10C0151770F407FF08C002FFD3
:100E1C0004C00B7F242F115001C020E301C020E23D
:100E2C0079D15150F0CF312F01FF15C0303091F0F6
:100E3C0003FF05C0EE81FF81259183D105C0AE81F2
:100E4C00BF812D91AE83BF8365D1503009F05150D5
:100E5C003150ECCF41C020E3EE81FF81A2D1E88775
:100E6C00F987EE81FF8132966CD1E885F985F6D051
:100E7C00D7D040F02F5FF5D0EA85FB85EA1BFB0B42
:100E8C00C6D0F3CF2A3328F003FF02C0295F01C07C
:100E9C00295D04FD18C0213318F4E3D0119709F42F
:100EAC0009C0531710F000FF01C011C020E207FF6A
:100EBC000AC020E3006102FF06C00B7F4A9334D1C5
:100ECC00503009F0515026D1503009F0515031506A
:100EDC00C8D0129708F0BFCF00FF07C0503029F0E0
:100EEC005150E0E2EA9320D1F9CF10E0FECEAC8570
:100EFC00BD8553D166D164960895FF92F82E26973E
:100F0C005BD122D1309711F485D01CC0DE0116962E
:100F1C002AD18D0119D115D1E0E0E887E987DE01EE
:100F2C001A9621D13AD1B8D01A930A93E5E4F6E097
:100F3C00B3D0DE011A96CFDE9F01AE81BF81E0E017
:100F4C00EC93F90140D12A96FF9008952FD0A991E6
:100F5C00B991EE27FF276D91662311F03196FBCFE7
:100F6C00089524D0AA27BB27E991F9910590002078
:100F7C0011F01196FBCFFD0108959798E881089523
:100F8C00969A9698FACFE981E0300895E2D0E0E0A5
:100F9C00EA93089530DBE0E0EA9308952CDBE1E07E
:100FAC00EA93089528DBA4E1B0E0F0CFBA93AA93BA
:100FBC000895E0E0EA930895E1E0EA930895EA35B4
:100FCC00A0E0FA070895E43BA0E0FA070895EE309C
:100FDC00A1E0FA070895F0E0EA0FFB1F0895EA0F6D
:100FEC00EA930895E985FA850895E985EA930895C9
:100FFC00E885F985FA93EA930895AB85BC85EE27CD
:10100C00A10FBE1FEC910895AC89BD890895EA87A4
:10101C00FB870895EFEFFFEF0895EA89FB890895A8
:10102C00AE17BF070895A889B9890895EA85FB858D
:10103C000E0F1F1F0895E885F9852E0F3F1F089589
:10104C00E889F9890895E88BF98B0895E32FAC8131
:10105C00BD81C1CF0A931A9313950895AA85BB85B8
:10106C000895A885B9850895A1DF2597FE01FA9307
:10107C00EA930895EAEDF4E0FA93EA93B3DF80D0B3
:10108C0094D084E03ADF2896FE01FA93EA93E2E3E7
:10109C00F0E0FA93EA930895FA93EA930895EEED4B
:1010AC00F4E0FADF9FDF6CD080D084E026DF289656
:1010BC00FE01F2DFE8E7F0E0EFCFE2E3F0E00895C5
:1010CC00A9DFEADFE3E0EA93A3E0A2CBE5DFE0E00F
:1010DC00F0E0E2CFE1DF9ECFEA93E0E20895EA93FD
:1010EC00EFE1F0E0F7CFEA93EFEAEA930895EA93A1
:1010FC00A0E0B0E0CBCBA0EEB1E00895AA81BB811B
:10110C00089514964AD00895ED91FD913196FE9371
:10111C00EE9308952A93AD85BE85EF85F8890995E0
:10112C0008958EDF34978FCFAD85BE85EF85F88916
:10113C000995089578DFE5CFEE83FF83AE81BF81FB
:10114C000895EE83FF830895DE011C960CD025D004
:10115C000895109639F080ED97E00197F1F7A89576
:10116C001197C9F708950024AF0DB01D0895F1959E
:10117C00E195F0400895EF2FFF27E7FDFFEF08956D
:10118C006F2F660F660B762F0895FA9FF02DEB9F4D
:10119C00F00DEA9FE02DF10D0895ED91FC91119762
:1011AC0008950590F491E02D08957A936A93FA933B
:1011BC00EA9308955A934A933A932A931A930A936B
:1011CC0008955D814C813B812A81198108810895A4
:00000001FF
