:08000000C6C2FECFFDCFFCCF0C
:10000800FBCFFACFF9CFF8CFF7CF03C7F5CFF4CFAF
:10001800F3CFF2CFF1CFF0CFEFCFEECFEDCF00009F
:1000280000010000000A0000001C0000003E000063
:10003800007C000000F8000001F0000003E0000070
:1000480007C000000F8000007F000000BE00000114
:100058007C000001FC000001F4000002E80000043C
:100068007000000880000011000000220000004419
:100078000000008800000110000002200000044079
:10008800000008800000110000000A0000001400B1
:1000980000002000000040000000000000000003F5
:1000A800F0000007FC00000FFE00001FFE00001F0C
:1000B800FE00001FFE00001FFC00001FF800001FCC
:1000C800F0003C0FE0007E0FE0007F07C1F8FF84DE
:1000D80027FCFFE81FFEFFF18FFFFFF3CFFFFFF3C1
:1000E800CFFFFFF18FFF7FF817FF3FE421FF1F834A
:1000F800E0FE0007F07E0007F03C000FF800001F4C
:10010800F800003FF800007FF800007FF800007F4B
:10011800F800007FF000003FE000000FC000000082
:10012800000000000000000000000000000007F0D0
:1001380000001FFFF0001FFFFE00383FFEFE383FA3
:10014800FE00783FFEFE783FFE00383FFEFE383F57
:10015800FE001FFFF8001FFFC00007FE000007F0A9
:10016800000007F0000007F0000007F0000007F0AB
:10017800000007F0000007F0000007F0000007F09B
:10018800000007F0000007F0000000000000000079
:100198000000000000000000000000000000000057
:1001A80000000000005F00000007000700147F1433
:1001B8007F14242A7F2A12231308646236495522A1
:1001C800500005030000001C2241000041221C00D1
:1001D800082A1C2A0808083E0808005030000008B1
:1001E80008080808003030000020100804023E51BA
:1001F80049453E00427F4000426151494621414500
:100208004B311814127F1027454545393C4A494956
:100218003001710905033649494936064949291EFD
:10022800003636000000563600000008142241143B
:100238001414141441221408000201510906324909
:1002480079413E7E1111117E7F494949363E41412F
:1002580041227F4141221C7F494949417F090901C7
:10026800013E414151327F0808087F00417F41002B
:100278002040413F017F081422417F404040407F99
:100288000204027F7F0408107F3E4141413E7F09FE
:100298000909063E4151215E7F0919294646494907
:1002A800493101017F01013F4040403F1F2040206C
:1002B8001F7F2018207F6314081463030478040345
:1002C800615149454300007F414102040810204123
:1002D800417F000004020102044040404040000108
:1002E80002040020545454787F4844443838444425
:1002F8004420384444487F3854545418087E09012F
:1003080002081454543C7F0804047800447D4000DB
:100318002040443D00007F10284400417F40007C7D
:10032800041804787C0804047838444444387C145D
:10033800141408081414187C7C080404084854543D
:100348005420043F4440203C4040207C1C20402056
:100358001C3C4030403C44281028440C5050503C31
:100368004464544C44000836410000007F000000FB
:1003780041360800000000000000000000007E1167
:1003880011117E7F454545397F494949367F01012D
:100398000103C07E417FC07F4949494177087F08F2
:1003A8007722494949367F2010087F7F2013087F2C
:1003B8007F08142241403E01017F7F0204027F7FB3
:1003C8000808087F3E4141413E7F0101017F7F09C6
:1003D8000909063E4141412201017F0101274848A0
:1003E800483F1E217F211E63140814637F40407F0D
:1003F800C00F1010107F7F407C407F7F407C40FF03
:10040800017F4848307F4830007F7F484848302285
:100418004949493E7F083E413E760909097F2054F3
:100428005454787C545454247C545454287C0404E4
:10043800040CC078447CC038545454186C107C1098
:100448006C28445454287C2010087C7C2112087C99
:100458007C10102844403804047C7C0810087C7CFC
:100468001010107C38444444387C0404047C7C1408
:10047800141408384444442004047C04040C5050E8
:10048800503C18247C241844281028447C40407C84
:10049800C00C1010107C7C4078407C7C407840FC7C
:1004A8007C545050207C5020007C7C505050202898
:1004B800445454387C10384438483414147C102779
:1004C800E80364000A0001000010000110000100A8
:1004D8000000000000000000000000002569202046
:1004E8000025692525202000204C4E534F4C4445BB
:1004F800522000506F7765726564206279204C6ED7
:100508004B4F78202620526164696F566574616C80
:1005180000484541540020202020004F4646202016
:100528002020000001002D4E414E00494E4600009B
:1005380001000200D8040A000400DA040B0060017C
:10054800F0041E006B01FB04050089011905050074
:100558008E011E0508009301230505009B011E0559
:100568000500A00119050500A5011E050500AA0141
:100578001E050800AF0123050500B7011E0501008F
:10058800D4012C050000F894EE27ECBBF1E0FBBF8A
:10059800EBBFE5BF8DE0A2E0BB27ED938A95E9F7B5
:1005A80080E094E0A0E6ED930197E9F7E8E3F5E051
:1005B80085919591009761F0A591B5910590159059
:1005C800BF01F00105900D920197E1F7FB01F0CF13
:1005D800EFE5EDBFE4E0EEBFC0E6D1E092C4AA9338
:1005E800E3D6E078E03809F4979AE1D6E074E0348D
:1005F80009F4979ADCD6E072E03209F4979AD7D6D4
:10060800E071E03109F4979AD2D6E870E83009F43D
:10061800979ACDD6E470E43009F4979AC8D6E27078
:10062800E23009F4979AC3D6E170E13009F4979A59
:10063800969A969864C4AA9396989798E981E7152C
:1006480029F4772011F4B6D609F007C0959AB2D6E6
:1006580011F0949A01C094989598A881C0DF798088
:100668009798A9C2E1B3E86FE1BB9398A4EFB1E012
:1006780008D8939AA4EFB1E0A0D6A1E0A2D6A6E349
:10068800A4D6A0E09ED6A1E1A4D6AAE39ED6A5E072
:10069800A0D6A9E2D0DF0895A0D648805980A0D678
:1006A800A6E3C9DFF201309719F49DD6A0E00EC089
:1006B8009DD619F498D6A0E409C09CD619F493D60F
:1006C800A0EC04C09BD619F48ED6A0E8B4DF73C2A0
:1006D800AA9386D6AAE279D6AC8177D6AB8171D6B1
:1006E800ABE273D6AA8171D6A9816BD6ACE2A3DF3F
:1006F800EAC073D6EB81EA93EC81EA93EC81EA9342
:10070800AD81E6DF949A6FD6AA815FD6A98193DF7F
:10071800DAC0AA93AFD8AE85A03818F0EE85E054B9
:10072800EE8700E0053008F070C0EE85F0E0B09785
:10073800A5E0B0E0DED7EA55FE4FDF01E02F62D634
:10074800149120E0EF81E21709F44BC041E0F20177
:10075800309711F04FD681F4E22FAD8557D6E22FAE
:10076800AE8554D6EE85EA93E985EE0FEE0FEE0FCF
:10077800AF85AE0FA15014C039D611F03FD689F419
:10078800ED85EA93EF81EE0FEE0FEE0FAE85AE0F1B
:10079800A150AA93E22FAE8539D6E22FAF85AE0FCE
:1007A80097DF949A30E03830D0F45E815030A1F071
:1007B800E42FE12341F017D6EB85FC858BD7AE2FCC
:1007C80004D6AB8506C00FD624D684D7AE2FFDD568
:1007D800A98531DF5150EACF440F3F5FE4CF2F5F47
:1007E800B1CFF201309711F005D629F4EF81AD852C
:1007F800EA0FED8708C0FAD511F000D621F4EF8191
:10080800AC85EA0FEC870F5F8DCF3BD82F96089504
:10081800AA931A93EA81E03011F4E1E0EA83CAD599
:1008280011F4E1E0E983F201E1D511F0E7D521F413
:100838001F81E885EF831887EFD5EED5EDD5EFD585
:10084800EED5EAD5A98565DF18812A960895AA9379
:100858001A9310E0EA81E03011F4E1E0EA83AAD5C6
:1008680011F4E1E0E983E0D5E03091F0DDD5EA93D9
:10087800A6E01A02F001AB81EA02F001AA85C6D50A
:10088800CBD5CDD5CCD5C8D5A985C2DF1F5FEBCFD9
:1008980018812D960895A1D5F1D7A2D5E3E8EA935A
:1008A8009FD5AFEA15DF949A00E010E0003CEAE536
:1008B8001E0740F498D5AC8188D5AB81BCDE0F5FAC
:1008C8001F4FF4CFE2D72496089587D56097D2D7E3
:1008D800F2018CD511F092D561F4EA8DEE83EB8D9F
:1008E800EA8FEE81EB8FE88DEE83E98DE88FEE815C
:1008F800E98FA98DBB27EB8DF0E0AE1BBF0BAC8B4E
:10090800BD8BA88DBB27EA8DF0E0AE1BBF0BAA8B71
:10091800BB8B91D5109719F491D5109709F005C0A4
:10092800EB8DEA93EB8DEA936DC0E1E0F0E089D5B9
:10093800E1E0F0E0E887F987AD89AA233AF484D5A5
:10094800BDD6EC8BFD8B83D57CD506C07DD5309785
:1009580019F4E0E0EA87EB87AB89AA233AF47AD561
:10096800ADD6EA8BFB8B73D5E887F98773D563D54A
:1009780074D554F4E0E0EF834C895D896BD5EC8B3A
:10098800FD8B4A8B5B8B02C0E1E0EF8363D5EE0FF2
:10099800FF1FEE87FF874FD5EE85FF8561D5AF0135
:1009A8004AD5FA015DD5EC87FD870B8D11272A8D75
:1009B8003327E0E0E88BE98B47D555D54ED504F5CC
:1009C8000A932A93A88DB98D94DEEF81E03011F057
:1009D8004DD501C050D555232AF4EE85FF854E0F1D
:1009E8005F1F0AC0EC85FD854E0F5F1FEF81E03069
:1009F80011F041D501C03AD543D5319644D5DCCF65
:100A08000A932A93A88DB98D74DE3BD76C96089506
:100A18003DD5A881B98144D546D548D5A881B981A5
:100A28001696ED93FC93EC81FD81A881B981189607
:100A3800ED93FC93EA81FB81A881B9811A96ED9325
:100A4800FC93A881B9811696E9D63196AFEFBFE736
:100A580095D6A881B9811C96ED93FC93A881B9819C
:100A68001896DCD6319625D5AFEFBFEF8FEF9FE311
:100A7800AFD6A881B9811E96DBD628960895ADD445
:100A88002C97F8D6D8D4EE89FF89EAD48F01D6D42A
:100A98001C96C4D6E017F1071CF42FEF3FE710C0EF
:100AA800CDD41C96BBD60AD60E171F071CF421E01E
:100AB80030E806C0CFD4A681B781F80142D69F019D
:100AC800C9D4A281B38184819581F801F2D4E7D594
:100AD800EE83FF8368877987EED4F1D4C1D63CF4DE
:100AE800EFEFFFEF6FEF7FE3EFD4F3D41FC0E3D452
:100AF800E9D5E5D4BAD644F4E1E0F0E060E070EC82
:100B0800E3D4E0D5E6D412C0EE81FF81688579850B
:100B1800E0D4A0D40084118491D4129683D6D00155
:100B2800E3D514D6EE87FF87688B798B93D402843C
:100B3800138484D473D67FD493D4D00102D6AF0162
:100B480083D47CD4B0D4EE85FF8568897989D901AE
:100B5800CBD5AAD5FA01ADD4A7D5E0E8F0E060E09E
:100B680070E036D6EA87FB876C877D87B7D4A030DC
:100B7800E0E8BE07E0E08E07E0E09E072CF0EFEF2C
:100B8800FFE760E070E00DC0A9D4A130E0E8BE073F
:100B9800EFEF8E07EFEF9E0744F4E1E0F0E86FEF28
:100BA8007FEFEA87FB876C877D87EA85FB8569D6B7
:100BB800689608956BD422960895E0E0F1E093D406
:100BC800E2E0F0E060E070E08ED4E6E0F0E060E0C3
:100BD80070E089D48BD41CDF08953DD68AD4E88987
:100BE800F9896A897B8965D57F936F93FF93EF9322
:100BF80085D427D65ED5AF91BF918F919F91A6D509
:100C08007F936F93FF93EF9374D4E885F9856A8592
:100C18007B854FD5AF91BF918F919F91D9D56ED4D8
:100C280043D5E5E0F0E060E070E0D2D5A5E0B0E0C3
:100C380080E090E08BD576C3D0D31ED630E00C850B
:100C4800AC85BB27EA85DED3A02FB0E006D40CF034
:100C58005EC01D85AD85BB27EB85D4D3A12FB0E041
:100C6800FCD30CF052C04FD4E491E07819F04FD483
:100C780052D402C04CD452D43CDD45D4E491E07443
:100C880019F045D448D402C042D448D432DD3BD40C
:100C9800E491E07219F03BD43ED402C038D43ED47B
:100CA80028DD31D4E491E07119F031D434D402C094
:100CB8002ED434D41EDD27D4E491E87019F027D45B
:100CC8002AD402C024D42AD414DD1DD4E491E470BB
:100CD80019F01DD420D402C01AD420D40ADD13D4AC
:100CE800E491E27019F013D416D402C010D416D4CB
:100CF80000DD09D4E491E17019F009D40CD402C0E4
:100D080006D40CD4F6DC3F5FA5CF0F5F99CFBBD5D7
:100D18002E96089506D419D4E0EEF7E050C05DD3BE
:100D2800219716D4E4EEF4E0DED314D418D4EAE71D
:100D3800F0E0D9D30AD419D41BD41DD4239608952E
:100D4800F0D31DD4E0EEF7E03AC047D3259700D49E
:100D5800E4EEF4E017D403D4EAE7F0E0C4D30FD408
:100D680004D42DC03AD32597AD81BE811597B4F030
:100D7800F1D3E1E0F0E060E070E068D5E4E6F0E0AF
:100D880060E070E063D5E0E5F0E060E070E05ED53B
:100D9800AFEFB0E080E090E020DF01C0E0E0EABD26
:100DA800D7D3E9EEF4E0EED384E0BED22896E0E0B3
:100DB800EC83CED3E4D3EAE5F0E095D371D3FA938C
:100DC800EA9345D390D3D7D327960895A6E0DFD3E7
:100DD8004F01A7E0DCD35F01A0E0D9D36F01A2E007
:100DE800D6D3E093BC01F093BD01A1E07CD0662787
:100DF8007727E5D3EFEFF3E060E070E0E0D3A4E617
:100E0800B0E080E090E0E9DEE093BE01F093BF013E
:100E180008950A921A92FA926A937A938A939A9305
:100E2800AA93BA93EA93FA93EFB7EA936394E6E046
:100E3800E61519F466240FD023D0E991EFBFF99194
:100E4800E991B991A9919991899179916991F990CB
:100E580019900990189522FE02C09B9B01C007C0FB
:100E6800E1E02E2620FC02C0AC9801C0AC9AE894C0
:100E78009D99689421F8E8949B99689422F80895BC
:100E880020FE1EC0DA92CA929A928A922FD3F7DD78
:100E98009DD3A1D3A030E1E0BE071CF0EFEFF0E056
:100EA80095D3A091C101AA233AF4E0E0E093C001F0
:100EB800E093C1011BD37EDEE091C001E8BD04C010
:100EC800E0E0E8BD13D376DE21FE0CC0A091BE01A0
:100ED800B091BF0147DF84D3AA16BB0614F4C09AA9
:100EE80001C0C0980895AA93E881E7B98BE18A9573
:100EF800F1F7369A349BFECF349AE4B1F5B12196D6
:100F08000895E7E0E7BBE0E0E8BBE0E1E4BBE0E050
:100F1800E5BBE8EFE1BBE0E0E2BBE5E0E3BFE0E032
:100F2800E2BFE1EAEFBDEDE0EEBDE0E0EDBDECBD16
:100F3800E7BDE6BDEBBDEABDE9BDE8BDE2BDE5BD87
:100F4800E4BDE3BDE1E0E9BFE0E0E5BFEBB9E8E01F
:100F5800EAB9E6E8E0BDE0E0E0BDECE0E9B9E0E8E8
:100F6800E8B9E0E0E7B9E7E8E6B9E0E0E0BFEDB905
:100F7800E6BFEABD77DBAAE5B0E08EDBE0E6F1E0AC
:100F8800B2D28ED2B0D2E2E3F0E0F2D289D2ABD2C2
:100F9800F2D2A8EEB3E075D3AFEFBFEF7CDC20D27E
:100FA800E5E023D322D324D3A6E2B0E045DE18D26D
:100FB800E8E222D3E8E224D313D2EDE216D315D324
:100FC80017D3A6E2B1E038DE0BD2E0E515D3E0E5B1
:100FD80017D3E2E0EA93E5E508D307D309D3A6EAF5
:100FE800B0E02ADEFDD1E8E707D3E8E709D3EBE66E
:100FF800F1E079D255D277D2EBE7F0E074D2ECE1A8
:10100800FDE5B6D2F0D100D3D8DD7894DFDE20FE3E
:1010180012C0D6017FDED40182DEDDD214971CF027
:10102800E9E8F1E002C0EEE8F1E0FA93EA93EED2E3
:10103800DAD1EAD20EC0E3E9F1E055D2A0D285D2E6
:101048002FD296D298D2EBE9F1E04DD2DFD2CBD1B4
:10105800DBD221FE13C0C4D273DED50176DEC0D246
:10106800AA16BB061CF4E0EAF1E002C0E5EAF1E0EA
:10107800FA93EA93D3D2B7D1C7D21EC0EAEAF1E015
:1010880032D2CCD2B0D1C0D2E4E6F0E0EA15FB050A
:1010980014F4A4E601C0A0E0B0E064DEEFEAF1E0F9
:1010A80022D26DD26CD2FCD163D265D2E7EBF1E0EB
:1010B8001AD2B4D298D1A8D2A9CFFFCF8ED1DED37D
:1010C800B5D21296ABD33097F1F0B0D2B2D28F012D
:1010D800309761F00230E0E01E0770F0F8013197B8
:1010E8008F01AA81BB811496ED93FC939FD212962F
:1010F800A3D23197AC81A08399D290D3FF2312F069
:1011080095D29AD203C092D2A2D1CDD1BED3259680
:10111800089563D12697AED310E0AC85BD85C0D1C4
:10112800C2D198D13196EA8BFB8B3197E4912E2F5F
:10113800E03009F4F3C0E12FE03031F4253211F446
:1011480011E001C07FD2E9C0E130A1F4253211F4E9
:1011580079D2E2C012E040E000E02D3211F401E063
:10116800DCC02B3211F44BE2D8C0203211F440E23B
:10117800D4C002C0E23039F450E013E0203311F457
:101188000068CBC003C0E33009F0C7C0203310F0BB
:101198002A3308F007C0AAE05A9F502DE22FE053E7
:1011A8005E0FBBC0E22FE33631F453D269D1A4817C
:1011B800AA9352D2B1C0E33731F44BD253D254D2AE
:1011C800DCD01E2F08C0E03751F443D24BD24CD2AA
:1011D800DFD01E2F086002600F7730E02EC0E436A3
:1011E80011F0E93611F4046002C0E53729F4E6ECA1
:1011F800F4E03FD215E00BC0E83511F4086003C0F5
:10120800E83709F089C0E0EDF4E033D214E002FFDA
:1012180011C01FD227D215D1AB85AA232AF4EA859B
:10122800FB854CD20ED14DE2403011F01F5F01C05A
:101238000B7F03C00ED216D204D100FD10C01517C3
:1012480070F407FF08C002FF04C00B7F242F115061
:1012580001C020E301C020E2F5D15150F0CF312F79
:1012680001FF14C0303089F003FF04C01FD125915D
:1012780000D205C0AE81BF812D91AE83BF83E2D17C
:10128800503009F051503150EDCF3DC020E30ED120
:10129800D4D2E887F9870AD13296EBD1E885F98567
:1012A8003AD1DBD038F02F5F39D1EA85FB85D8D029
:1012B800C8D0F4CF2A3328F003FF02C0295F01C049
:1012C800295D04FD18C0213318F428D1119709F4B9
:1012D80009C0531710F000FF01C011C020E207FF3A
:1012E8000AC020E3006102FF06C00B7F4A93B4D115
:1012F800503009F05150A6D1503009F051503150BA
:101308000DD1129718F600FF07C0503029F0515040
:10131800E0E2EA93A1D1F9CF10E003CFAC85BD8517
:101328007DD2AFD264960895FF92F82E2697A4D264
:10133800A3D1309711F48BD01CC0DE011696ABD127
:101348008D019AD196D1E0E0E887E987DE011A9607
:10135800A2D164D2C8D01A930A93E2E6F8E0C3D0C7
:10136800DE011A96D6DE9F01AE81BF81E0E0EC93E4
:10137800F90189D22A96FF9008952FD0A991B991A1
:10138800EE27FF276D91662311F03196FBCF089564
:1013980024D0AA27BB27E991F9910590002011F0E4
:1013A8001196FBCFFD0108959798E8810895969AC4
:1013B8009698FACFE981E030089563D1E0E0EA93A6
:1013C800089539D9E0E0EA93089535D9E1E0EA9340
:1013D800089531D9A4E1B0E0F0CFBA93AA93089563
:1013E800E0E0EA930895E1E0EA930895EA35A0E0A1
:1013F800FA070895E43BA0E0FA070895EE30A1E06B
:10140800FA070895F0E0EA0FFB1F0895EA0FEA9340
:101418000895E985FA850895E985EA930895E885A8
:10142800F985FA93EA930895AB85BC85EE27A10F59
:10143800BE1FEC910895AC89BD890895AA89BB891E
:101448000895EA87FB870895EC89FD890895EFEFF1
:10145800FFEF0895EA89FB890895AE17BF0708953D
:10146800EA1BFB0B0895A889B9890895EA85FB85CD
:101478000E0F1F1F0895E885F9852E0F3F1F089549
:10148800E889F9890895E88BF98B0895A6DFA88182
:10149800B9811296E0E0F0E060E070E0C9D108950B
:1014A800E0E0F0E00895ED93FC930895EE81FF816C
:1014B800089515D10895C2DF1E96B4D10895AE815E
:1014C800BF81888599850895EE87FF87688B798B1A
:1014D800F2CFAA89BB891296ABD10895AA85BB859C
:1014E8008C859D850895FA93EA930895A2ECB1E05E
:1014F8000895AC85BD858E859F850895AC81BD8195
:101508008E819F810895E32FAC81BD817BCF0A93A3
:101518001A9313950895AA85BB850895A885B9855A
:1015280008955BDF2597FE01DEDFE4EEF4E0DBDF04
:1015380070DFBFDF8BD184E0F7DE2896E0E0EB8335
:10154800FE01D1DFE2E3F0E0CECFEAE0F0E0CBCF7E
:10155800FE01C9CFED81FE81ACDF78D1089584E02A
:10156800E3DE2896E0E0EB83F3CFE0E0F8EF0895C0
:10157800BADF6DDFB8CFE3E0EA93A3E068C9E2E33E
:10158800F0E0B1CFB0DF45DF94DF60D10895ABDC88
:10159800662777275BD1E0E0F0E060E070E056D1A5
:1015A800EFEFF3E060E070E051D1E0E0F0E060E000
:1015B80070E04CD1A0EEB1E080E090E00ECB46D1D7
:1015C800E0E0F0E060E070E041D10895E093C00110
:1015D800F093C1010895A091C001B091C10108958F
:1015E800A091BC01B091BD010895EA93E0E208958D
:1015F800EA93EFE1F0E0BCCFEA93EFEAEA930895CB
:10160800EA93A0E0B0E061C9A1E021C9EFE0F0E011
:101618006ADFEEE1F0E067DFA8DFAACFEFE0F0E0F5
:1016280062DFE6E4F0E05FDFA0DFA2CFAA81BB8142
:1016380008951496F3D00895ED91FD913196FE9397
:10164800EE9308952A93AD85BE85EF85F8890995AF
:10165800089516DF349717CFAD85BE85EF85F889D5
:101668000995089500DFE5CFEE83FF83AE81BF8142
:101678000895EE83FF830895DE011C960CD0CED02A
:101688000895109639F080ED97E00197F1F7A89545
:101698001197C9F708950024AF0DB01D0895EA0FFA
:1016A800FB1F681F791F0895AE0FBF1F861F971F66
:1016B8000895EA1BFB0B680B790B0895F195E195EA
:1016C800F0400895F09560957095E195FF4F6F4F44
:1016D8007F4F0895EF2FFF27E7FDFFEF08956F2F46
:1016E800660F660B762F08958B2F880F880B982F1F
:1016F8000895FA9FF02DEB9FF00DEA9FE02DF10D74
:1017080008957A9F702D6B9F700DF89F700DE99F5B
:10171800700D6A9F602D710DFB9F600D711DE89F14
:10172800600D711D8827FA9FF02D610D781FEB9FC2
:10173800F00D611D781FEA9FE02DF10D681F781FDD
:1017480008954BD0D6DF0EF4B9DF089554D0D9DF11
:101758000EF4B8DF08950024112490E1AA0FBB1FEE
:10176800001C111C0E1A1F0A18F40E0E1F1E01C0B1
:10177800A1609A9599F7FD01D00108952ED0EBDF6D
:101788000EF49CDF08953F934F935F930024112438
:101798004427552730E2AA0FBB1F881F991F001C3A
:1017A800111C441F551F0E1A1F0A460B570B28F40D
:1017B8000E0E1F1E461F571F01C0A1603A9559F70C
:1017C800FD01BC01D001CA015F914F913F9108957D
:1017D80012D0D9DF0EF476DF0895E894F7FF02C03F
:1017E8006DDF6894B7FF06C0A095B095119600F814
:1017F800039400FA0895E89477FF02C063DF6894C1
:1018080097FF0BC00024A095B095809590951196F0
:10181800801D901D00F8039400FA0895ED91FC9145
:1018280011970895ED91FD916D917C91139708950D
:10183800ED93FD936D937C9308950590F491E02DBD
:101848000895E881F9816A817B8108957A936A9382
:10185800FA93EA9308959A938A93BA93AA93089568
:10186800EA17FB07680779070895AE17BF078607C9
:10187800970708955A934A933A932A931A930A9387
:1018880008955D814C813B812A81198108810895E1
:00000001FF
