:02000000C3C279
:10000200FECFFDCFFCCFFBCFFACFF9CFF8CFF7CFA2
:10001200F8C6F5CFF4CFF3CFF2CFF1CFF0CFEFCFD9
:10002200EECFEDCF000000010000000A0000001C2E
:100032000000003E0000007C000000F8000001F01B
:10004200000003E0000007C000000F8000007F00F6
:100052000000BE0000017C000001FC000001F40071
:100062000002E80000047000000880000011000097
:10007200002200000044000000880000011000007F
:10008200022000000440000008800000110000006F
:100092000A000000140000002000000040000000E0
:1000A200000000000003F0000007FC00000FFE004B
:1000B200001FFE00001FFE00001FFE00001FFC00CC
:1000C200001FF800001FF0003C0FE0007E0FE00070
:1000D2007F07C1F8FF8427FCFFE81FFEFFF18FFFB7
:1000E200FFF3CFFFFFF3CFFFFFF18FFF7FF817FF83
:1000F2003FE421FF1F83E0FE0007F07E0007F03C93
:10010200000FF800001FF800003FF800007FF80021
:10011200007FF800007FF800007FF000003FE00061
:10012200000FC000000000000000000000000000FE
:100132000000000007F000001FFFF0001FFFFE009C
:10014200383FFEFE383FFE00783FFEFE783FFE005D
:10015200383FFEFE383FFE001FFFF8001FFFC000C1
:1001620007FE000007F0000007F0000007F00000A3
:1001720007F0000007F0000007F0000007F00000A1
:1001820007F0000007F0000007F0000007F0000091
:10019200000000000000000000000000000000005D
:1001A20000000000000000000000005F00000007E7
:1001B200000700147F147F14242A7F2A12231308B5
:1001C200646236495522500005030000001C22419A
:1001D200000041221C00082A1C2A0808083E0808C0
:1001E20000503000000808080808003030000020E5
:1001F200100804023E5149453E00427F40004261E0
:100202005149462141454B311814127F102745456B
:1002120045393C4A49493001710905033649494982
:1002220036064949291E00363600000056360000BF
:100232000008142241141414141441221408000258
:1002420001510906324979413E7E1111117E7F49E1
:100252004949363E414141227F4141221C7F494961
:1002620049417F090901013E414151327F08080895
:100272007F00417F41002040413F017F081422411D
:100282007F404040407F0204027F7F0408107F3E8F
:100292004141413E7F090909063E4151215E7F09E4
:1002A200192946464949493101017F01013F404030
:1002B200403F1F2040201F7F2018207F6314081416
:1002C200630304780403615149454300007F4141BF
:1002D200020408102041417F000004020102044090
:1002E20040404040000102040020545454787F48AA
:1002F2004444383844444420384444487F385454B1
:100302005418087E090102081454543C7F0804045E
:100312007800447D40002040443D00007F10284486
:1003220000417F40007C041804787C08040478387B
:10033200444444387C14141408081414187C7C08AF
:100342000404084854545420043F4440203C404094
:10035200207C1C2040201C3C4030403C442810287B
:10036200440C5050503C4464544C44000836410004
:1003720000007F000000413608000000000000007D
:10038200000000007E1111117E7F454545397F49ED
:100392004949367F01010103C07E417FC07F49493F
:1003A200494177087F087722494949367F2010085A
:1003B2007F7F2013087F7F08142241403E01017F86
:1003C2007F0204027F7F0808087F3E4141413E7F51
:1003D2000101017F7F090909063E414141220101D4
:1003E2007F0101274848483F1E217F211E631408D0
:1003F20014637F40407FC00F1010107F7F407C400D
:100402007F7F407C40FF017F4848307F4830007F3B
:100412007F48484830224949493E7F083E413E765E
:100422000909097F20545454787C545454247C5430
:100432005454287C0404040CC078447CC0385454BE
:1004420054186C107C106C28445454287C201008DA
:100452007C7C2112087C7C10102844403804047CE7
:100462007C0810087C7C1010107C38444444387C92
:100472000404047C7C141414083844444420040406
:100482007C04040C5050503C18247C24184428103E
:1004920028447C40407CC00C1010107C7C4078408A
:1004A2007C7C407840FC7C545050207C5020007C66
:1004B2007C5050502028445454387C1038443848DA
:1004C2003414147C1027E80364000A0001000010B1
:1004D2000001100001000000000000000000000008
:1004E2000000256920200025692525202000204CB8
:1004F2004E534F4C4445522000506F7765726564ED
:10050200206279204C6E4B4F78202620526164691C
:100512006F566574616C00484541540020202020CC
:10052200004F464620202020000001002D4E414E63
:1005320000494E46000001000200D8040A000400EF
:10054200DA040B006001F0041E006B01FB040500DD
:100552008901190505008E011E0508009301230576
:1005620005009B011E050500A00119050500A50156
:100572001E050500AA011E050800AF0123050100A2
:10058200CF012C050000F894EE27ECBBF1E0FBBF95
:10059200EBBFE5BF8DE0A2E0BB27ED938A95E9F7BB
:1005A20080E094E0A0E6ED930197E9F7E8E3F5E057
:1005B20085919591009761F0A591B591059015905F
:1005C200BF01F00105900D920197E1F7FB01F0CF19
:1005D200EFE5EDBFE4E0EEBFC0E6D1E095C4AA933B
:1005E200DAD6E078E03809F4979AD8D6E074E034A5
:1005F20009F4979AD3D6E072E03209F4979ACED6EC
:10060200E071E03109F4979AC9D6E870E83009F44C
:10061200979AC4D6E470E43009F4979ABFD6E27090
:10062200E23009F4979ABAD6E170E13009F4979A68
:10063200969A969867C4AA9396989798E981E7152F
:1006420029F4772011F4ADD609F007C0959AA9D6FE
:1006520011F0949A01C094989598A881C0DF79808E
:100662009798A9C2E1B3E86FE1BB9398A4EFB1E018
:1006720008D8939AA4EFB1E097D6A1E099D6A6E361
:100682009BD6A0E095D6A1E19BD6AAE395D6A5E09C
:1006920097D6A9E2D0DF089597D64880598097D699
:1006A200A6E3C9DFF201309719F494D6A0E00EC098
:1006B20094D619F48FD6A0E409C093D619F48AD639
:1006C200A0EC04C092D619F485D6A0E8B4DF73C2B8
:1006D200AA937DD6AAE270D6AC816ED6AB8168D6DB
:1006E200ABE26AD6AA8168D6A98162D6ACE2A3DF60
:1006F200EAC06AD6EB81EA93EC81EA93EC81EA9351
:10070200AD81E6DF949A66D6AA8156D6A98193DF97
:10071200DAC0AA93AFD8AE85A03818F0EE85E054BF
:10072200EE8700E0053008F070C0EE85F0E0B0978B
:10073200A5E0B0E0DED7EA55FE4FDF01E02F59D643
:10074200149120E0EF81E21709F44BC041E0F2017D
:10075200309711F046D681F4E22FAD854ED6E22FC6
:10076200AE854BD6EE85EA93E985EE0FEE0FEE0FDE
:10077200AF85AE0FA15014C030D611F036D689F431
:10078200ED85EA93EF81EE0FEE0FEE0FAE85AE0F21
:10079200A150AA93E22FAE8530D6E22FAF85AE0FDD
:1007A20097DF949A30E03830D0F45E815030A1F077
:1007B200E42FE12341F00ED6EB85FC858BD7AE2FDB
:1007C200FBD5AB8506C006D61BD684D7AE2FF4D593
:1007D200A98531DF5150EACF440F3F5FE4CF2F5F4D
:1007E200B1CFF201309711F0FCD529F4EF81AD853C
:1007F200EA0FED8708C0F1D511F0F7D521F4EF81AA
:10080200AC85EA0FEC870F5F8DCF3BD82F9608950A
:10081200AA931A93EA81E03011F4E1E0EA83C1D5A8
:1008220011F4E1E0E983F201D8D511F0DED521F42B
:100832001F81E885EF831887E6D5E5D5E4D5E6D5AF
:10084200E5D5E1D5A98565DF18812A960895AA9391
:100852001A9310E0EA81E03011F4E1E0EA83A1D5D5
:1008620011F4E1E0E983D7D5E03091F0D4D5EA93F1
:10087200A6E01A02F001AB81EA02F001AA85BDD519
:10088200C2D5C4D5C3D5BFD5A985C2DF1F5FEBCF03
:1008920018812D96089598D5F1D799D5E3E8EA9372
:1008A20096D5AFEA15DF949A00E010E0003CEAE545
:1008B2001E0740F48FD5AC817FD5AB81BCDE0F5FC4
:1008C2001F4FF4CFE2D7249608957ED56097D2D7F2
:1008D200F20183D511F089D561F4EA8DEE83EB8DB7
:1008E200EA8FEE81EB8FE88DEE83E98DE88FEE8162
:1008F200E98FA98DBB27EB8DF0E0AE1BBF0BAC8B54
:10090200BD8BA88DBB27EA8DF0E0AE1BBF0BAA8B77
:10091200BB8B88D5109719F488D5109709F005C0BC
:10092200EB8DEA93EB8DEA936DC0E1E0F0E080D5C8
:10093200E1E0F0E0E887F987AD89AA233AF47BD5B4
:10094200BDD6EC8BFD8B7AD573D506C074D53097A6
:1009520019F4E0E0EA87EB87AB89AA233AF471D570
:10096200ADD6EA8BFB8B6AD5E887F9876AD55AD56B
:100972006BD554F4E0E0EF834C895D8962D5EC8B52
:10098200FD8B4A8B5B8B02C0E1E0EF835AD5EE0F01
:10099200FF1FEE87FF8746D5EE85FF8558D5AF014D
:1009A20041D5FA0154D5EC87FD870B8D11272A8D8D
:1009B2003327E0E0E88BE98B3ED54CD545D504F5ED
:1009C2000A932A93A88DB98D94DEEF81E03011F05D
:1009D20044D501C047D555232AF4EE85FF854E0F35
:1009E2005F1F0AC0EC85FD854E0F5F1FEF81E0306F
:1009F20011F038D501C031D53AD531963BD5DCCF8F
:100A02000A932A93A88DB98D74DE3BD76C9608950C
:100A120034D5A881B9813BD53DD53FD5A881B981CF
:100A22001696ED93FC93EC81FD81A881B98118960D
:100A3200ED93FC93EA81FB81A881B9811A96ED932B
:100A4200FC93A881B9811696E9D63196AFEFBFE73C
:100A520095D6A881B9811C96ED93FC93A881B981A2
:100A62001896DCD631961CD5AFEFBFEF8FEF9FE320
:100A7200AFD6A881B9811E96DBD628960895A4D454
:100A82002C97F8D6CFD4EE89FF89E1D48F01CDD44B
:100A92001C96C4D6E017F1071CF42FEF3FE710C0F5
:100AA200C4D41C96BBD60AD60E171F071CF421E02D
:100AB20030E806C0C6D4A681B781F80142D69F01AC
:100AC200C0D4A281B38184819581F801E9D4E7D5AC
:100AD200EE83FF8368877987E5D4E8D4C1D63CF4F6
:100AE200EFEFFFEF6FEF7FE3E6D4EAD41FC0DAD473
:100AF200E9D5DCD4BAD644F4E1E0F0E060E070EC91
:100B0200DAD4E0D5DDD412C0EE81FF816885798523
:100B1200D7D497D40084118488D4129683D6D00176
:100B2200E3D514D6EE87FF87688B798B8AD402844B
:100B320013847BD473D676D48AD4D00102D6AF0183
:100B42007AD473D4A7D4EE85FF8568897989D901CF
:100B5200CBD5AAD5FA01A4D4A7D5E0E8F0E060E0AD
:100B620070E036D6EA87FB876C877D87AED4A030EB
:100B7200E0E8BE07E0E08E07E0E09E072CF0EFEF32
:100B8200FFE760E070E00DC0A0D4A130E0E8BE074E
:100B9200EFEF8E07EFEF9E0744F4E1E0F0E86FEF2E
:100BA2007FEFEA87FB876C877D87EA85FB8569D6BD
:100BB2006896089562D422960895E0E8F1E08AD416
:100BC20089D48FD491D424DF089545D690D4E8896E
:100BD200F9896A897B896DD57F936F93FF93EF9330
:100BE2008BD42FD666D5AF91BF918F919F91AED501
:100BF2007F936F93FF93EF937AD4E885F9856A85A3
:100C02007B8557D5AF91BF918F919F91E1D574D4D8
:100C12004BD5E5E0F0E060E070E0DAD5A5E0B0E0C9
:100C220080E090E093D575C3CFD326D630E00C8513
:100C3200AC85BB27EA85DDD3A02FB0E005D40CF04C
:100C42005EC01D85AD85BB27EB85D3D3A12FB0E058
:100C5200FBD30CF052C055D4E491E07819F055D48E
:100C620058D402C052D458D444DD4BD4E491E07439
:100C720019F04BD44ED402C048D44ED43ADD41D4FC
:100C8200E491E07219F041D444D402C03ED444D479
:100C920030DD37D4E491E07119F037D43AD402C090
:100CA20034D43AD426DD2DD4E491E87019F02DD451
:100CB20030D402C02AD430D41CDD23D4E491E470B1
:100CC20019F023D426D402C020D426D412DD19D49C
:100CD200E491E27019F019D41CD402C016D41CD4C9
:100CE20008DD0FD4E491E17019F00FD412D402C0E0
:100CF2000CD412D4FEDC3F5FA5CF0F5F99CFC3D5D2
:100D02002E9608950CD41FD4E0EEF7E050C05CD3C9
:100D120021971CD4E4EEF4E0E4D31AD41ED4EAE71B
:100D2200F0E0DFD310D41FD421D423D42396089526
:100D3200F6D323D4E0EEF7E03AC046D3259706D4A3
:100D4200E4EEF4E01DD409D4EAE7F0E0CAD315D406
:100D52000AD42DC039D32597AD81BE811597B4F041
:100D6200F7D3E1E0F0E060E070E070D5E4E6F0E0B7
:100D720060E070E06BD5E0E5F0E060E070E066D541
:100D8200AFEFB0E080E090E020DF01C0E0E0EABD3C
:100D9200DDD3E9EEF4E0F4D384E0BDD22896E0E0BE
:100DA200EC83D4D3EAD3EAE5F0E09BD370D3FA9391
:100DB200EA9344D396D3DDD327960895A6E0E5D3EC
:100DC2004F01A7E0E2D35F01A0E0DFD36F01A2E011
:100DD200DCD3E093B701F093B801A1E087D0662796
:100DE2007727EBD3EFEFF3E060E070E0E6D3A4E621
:100DF200B0E080E090E0E9DEE093B901F093BA015F
:100E020008950A921A92FA926A937A938A939A931B
:100E1200AA93BA93EA93FA93EFB7EA936394E6E05C
:100E2200E61519F466240FD023D0E991EFBFF991AA
:100E3200E991B991A9919991899179916991F990E1
:100E420019900990189522FE02C09B9B01C007C011
:100E5200E1E02E2620FC02C0AC9801C0AC9AE894D6
:100E62009D99689421F8E8949B99689422F80895D2
:100E720020FE27C0DA92CA929A928A9235D3FFDD77
:100E8200A3D3A7D35ADFA5D3A030E1E0BE071CF05D
:100E9200EFEFF0E099D39DD3AF35E1E0BE0714F058
:100EA20023D388DEA091BC01AA233AF4E0E0E093C8
:100EB200BB01E093BC0118D37DDEE091BB01E8BD2C
:100EC20004C0E0E0E8BD10D375DEE8B5F0E0DF0174
:100ED2002FDF21FE0AC0A091B901B091BA013ADF19
:100EE2007DD314F4C09A01C0C0980895AA93E881F2
:100EF200E7B98BE18A95F1F7369A349BFECF349AA3
:100F0200E4B1F5B121960895E7E0E7BBE0E0E8BB84
:100F1200E0E1E4BBE0E0E5BBE8EFE1BBE0E0E2BB3F
:100F2200E5E0E3BFE0E0E2BFE1EAEFBDEDE0EEBD08
:100F3200E0E0EDBDECBDE7BDE6BDEBBDEABDE9BD60
:100F4200E8BDE2BDE5BDE4BDE3BDE1E0E9BFE0E04F
:100F5200E5BFEBB9E8E0EAB9E6E8E0BDE0E0E0BD14
:100F6200ECE0E9B9E0E8E8B9E0E0E7B9E7E8E6B9DA
:100F7200E0E0E0BFEDB9E6BFEABD74DBAAE5B0E0B0
:100F82008BDBE0E6F1E0ADD282D2ABD2E2E3F0E07D
:100F9200EDD27DD2A6D2EDD2A8EEB3E072D3AFEFFE
:100FA200BFEF79DC14D2E5E020D31FD321D3A6E230
:100FB200B0E03ADE0CD2E8E21FD3E8E221D307D256
:100FC200EDE213D312D314D3A6E2B1E02DDEFFD1AA
:100FD200E0E512D3E0E514D3E2E0EA93E5E505D3D8
:100FE20004D306D3A6EAB0E01FDEF1D1E8E704D3CA
:100FF200E8E706D3EBE6F1E074D249D272D2EBE72E
:10100200F0E06FD2ECE1FDE5B1D2E4D1FDD2D5DD65
:101012007894D4DE20FE12C0D60174DED40177DECD
:10102200D8D214971CF0E9E8F1E002C0EEE8F1E052
:10103200FA93EA93EBD2CED1E7D20EC0E3E9F1E024
:1010420050D29BD280D223D291D293D2EBE9F1E05B
:1010520048D2DCD2BFD1D8D221FE0DC0BFD21CF4FF
:10106200E0EAF1E002C0E5EAF1E0FA93EA93D6D2CF
:10107200B1D1CAD218C0EAEAF1E033D2CFD2AAD1B2
:10108200C3D2E4E6F0E0EA15FB0514F4A4E601C0DD
:10109200A0E0B0E05FDEEFEAF1E023D26ED26DD2E3
:1010A200F6D164D266D2B5CFFFCF8ED1E7D3BED20E
:1010B2001296B4D33097F1F0B9D2BBD28F013097E8
:1010C20061F00230E0E01E0770F0F80131978F0105
:1010D200AA81BB811496ED93FC93A8D21296ACD24E
:1010E2003197AC81A083A2D299D3FF2312F09ED272
:1010F200A3D203C09BD2A2D1CDD1C7D32596089546
:1011020063D12697B7D310E0AC85BD85C0D1C2D1DB
:1011120098D13196EA8BFB8B3197E4912E2FE030F8
:1011220009F4F3C0E12FE03031F4253211F411E07B
:1011320001C088D2E9C0E130A1F4253211F482D293
:10114200E2C012E040E000E02D3211F401E0DCC028
:101152002B3211F44BE2D8C0203211F440E2D4C059
:1011620002C0E23039F450E013E0203311F4006899
:10117200CBC003C0E33009F0C7C0203310F02A33DC
:1011820008F007C0AAE05A9F502DE22FE0535E0FED
:10119200BBC0E22FE33631F45CD269D1A481AA93B9
:1011A2005BD2B1C0E33731F454D25CD25DD2DCD031
:1011B2001E2F08C0E03751F44CD254D255D2DFD0A2
:1011C2001E2F086002600F7730E02EC0E43611F067
:1011D200E93611F4046002C0E53729F4E6ECF4E0E4
:1011E20048D215E00BC0E83511F4086003C0E837B7
:1011F20009F089C0E0EDF4E03CD214E002FF11C036
:1012020028D230D215D1AB85AA232AF4EA85FB85F0
:1012120055D20ED14DE2403011F01F5F01C00B7F5D
:1012220003C017D21FD204D100FD10C0151770F4ED
:1012320007FF08C002FF04C00B7F242F115001C01A
:1012420020E301C020E2FED15150F0CF312F01FF47
:1012520014C0303089F003FF04C01FD1259109D298
:1012620005C0AE81BF812D91AE83BF83EBD15030DB
:1012720009F051503150EDCF3DC020E30ED1DDD207
:10128200E887F9870AD13296F4D1E885F98541D108
:10129200DBD038F02F5F40D1EA85FB85D8D0C8D0AB
:1012A200F4CF2A3328F003FF02C0295F01C0295D71
:1012B20004FD18C0213318F42FD1119709F409C085
:1012C200531710F000FF01C011C020E207FF0AC04F
:1012D20020E3006102FF06C00B7F4A93BDD150306C
:1012E20009F05150AFD1503009F05150315014D162
:1012F200129718F600FF07C0503029F05150E0E273
:10130200EA93AAD1F9CF10E003CFAC85BD8586D28E
:10131200B8D264960895FF92F82E2697ADD2ACD13A
:10132200309711F48BD01CC0DE011696B4D18D011A
:10133200A3D19FD1E0E0E887E987DE011A96ABD11D
:101342006DD2CFD01A930A93E6E5F8E0CAD0DE0157
:101352001A96D6DE9F01AE81BF81E0E0EC93F901DF
:1013620092D22A96FF9008952FD0A991B991EE2793
:10137200FF276D91662311F03196FBCF089524D09B
:10138200AA27BB27E991F9910590002011F0119647
:10139200FBCFFD0108959798E8810895969A969853
:1013A200FACFE981E03008956CD1E0E0EA93089544
:1013B20042D9E0E0EA9308953ED9E1E0EA93089544
:1013C2003AD9A4E1B0E0F0CFBA93AA930895E0E04D
:1013D200EA930895E1E0EA930895EA35A0E0FA0776
:1013E2000895E43BA0E0FA070895EE30A1E0FA0781
:1013F2000895F0E0EA0FFB1F0895EA0FEA930895BB
:10140200E985FA850895E985EA930895E885F985DD
:10141200FA93EA930895AB85BC85EE27A10FBE1F10
:10142200EC910895AC89BD890895AA89BB89089574
:10143200EA87FB870895EC89FD890895EFEFFFEFB6
:101442000895EA89FB890895AE17BF070895EA1B3C
:10145200FB0B0895A889B9890895EA85FB850E0FCB
:101462001F1F0895E885F9852E0F3F1F0895E8890B
:10147200F9890895E88BF98B0895A6DFA881B981CF
:101482001296E0E0F0E060E070E0D2D10895E0E092
:10149200F0E00895ED93FC930895EE81FF810895A5
:1014A2001ED10895C2DF1E96BDD10895AE81BF81BF
:1014B200888599850895EE87FF87688B798BF2CFAF
:1014C200AA89BB891296B4D10895AA85BB858C8559
:1014D2009D850895FA93EA93E6E0F0E060E070E01B
:1014E2000895FA93EA930895ADEBB1E00895AC85BF
:1014F200BD858E859F850895AC81BD818E819F813A
:101502000895E32FAC81BD8174CF0A931A9313958A
:101512000895AA85BB850895A885B985089554DFE5
:101522002597FE01DEDFE4EEF4E0DBDF69DFB8DF02
:101532008DD184E0F0DE2896E0E0EB83FE01D1DF7E
:10154200E2E3F0E0CECFEAE0F0E0CBCFFE01C9CF9C
:10155200ED81FE81A5DF7AD1089584E0DCDE289654
:10156200E0E0EB83F3CFE0E0F8EF0895BADF66DF67
:10157200B8CFE3E0EA93A3E06AC9E2E3F0E0B1CFD7
:10158200B0DF3EDF8DDF62D10895B0DC66277727BA
:101592005DD1E0E0F0E060E070E058D1EFEFF3E021
:1015A20060E070E053D1E0E0F0E060E070E04ED146
:1015B200A0EEB1E080E090E008CB48D1E0E0F0E0BE
:1015C20060E070E043D10895E093BB01F093BC0169
:1015D2000895A091BB01B091BC010895A091B701FB
:1015E200B091B801AA16BB060895EA93E0E2089505
:1015F200EA93EFE1F0E0BACFEA93EFEAEA930895D3
:10160200EA93A0E0B0E061C9A1E021C9EFE0F0E017
:1016120068DFEEE1F0E065DFA6DFA8CFEFE0F0E003
:1016220060DFE6E4F0E05DDF9EDFA0CFAA81BB8150
:1016320008951496F3D00895ED91FD913196FE939D
:10164200EE9308952A93AD85BE85EF85F8890995B5
:1016520008950DDF34970ECFAD85BE85EF85F889ED
:1016620009950895F7DEE5CFEE83FF83AE81BF8152
:101672000895EE83FF830895DE011C960CD0CED030
:101682000895109639F080ED97E00197F1F7A8954B
:101692001197C9F708950024AF0DB01D0895EA0F00
:1016A200FB1F681F791F0895AE0FBF1F861F971F6C
:1016B2000895EA1BFB0B680B790B0895F195E195F0
:1016C200F0400895F09560957095E195FF4F6F4F4A
:1016D2007F4F0895EF2FFF27E7FDFFEF08956F2F4C
:1016E200660F660B762F08958B2F880F880B982F25
:1016F2000895FA9FF02DEB9FF00DEA9FE02DF10D7A
:1017020008957A9F702D6B9F700DF89F700DE99F61
:10171200700D6A9F602D710DFB9F600D711DE89F1A
:10172200600D711D8827FA9FF02D610D781FEB9FC8
:10173200F00D611D781FEA9FE02DF10D681F781FE3
:1017420008954BD0D6DF0EF4B9DF089554D0D9DF17
:101752000EF4B8DF08950024112490E1AA0FBB1FF4
:10176200001C111C0E1A1F0A18F40E0E1F1E01C0B7
:10177200A1609A9599F7FD01D00108952ED0EBDF73
:101782000EF49CDF08953F934F935F93002411243E
:101792004427552730E2AA0FBB1F881F991F001C40
:1017A200111C441F551F0E1A1F0A460B570B28F413
:1017B2000E0E1F1E461F571F01C0A1603A9559F712
:1017C200FD01BC01D001CA015F914F913F91089583
:1017D20012D0D9DF0EF476DF0895E894F7FF02C045
:1017E2006DDF6894B7FF06C0A095B095119600F81A
:1017F200039400FA0895E89477FF02C063DF6894C7
:1018020097FF0BC00024A095B095809590951196F6
:10181200801D901D00F8039400FA0895ED91FC914B
:1018220011970895ED91FD916D917C911397089513
:10183200ED93FD936D937C9308950590F491E02DC3
:101842000895E881F9816A817B8108957A936A9388
:10185200FA93EA9308959A938A93BA93AA9308956E
:10186200EA17FB07680779070895AE17BF078607CF
:10187200970708955A934A933A932A931A930A938D
:1018820008955D814C813B812A81198108810895E7
:00000001FF
