:04000000C3C2FECFAA
:10000400FDCFFCCFFBCFFACFF9CFF8CFF7CF19C68E
:10001400F5CFF4CFF3CFF2CFF1CFF0CFEFCFEECFD8
:10002400EDCF000000010000000A0000001C0000E9
:10003400003E0000007C000000F8000001F0000019
:1000440003E0000007C000000F8000007F000000F4
:10005400BE0000017C000001FC000001F40000026D
:10006400E800000470000008800000110000002275
:10007400000000440000008800000110000002207D
:1000840000000440000008800000110000000A0085
:1000940000001400000020000000400000000000E8
:1000A40000000003F0000007FC00000FFE00001F2A
:1000B400FE00001FFE00001FFE00001FFC00001FCA
:1000C400F800001FF0003C0FE0007E0FE0007F0707
:1000D400C1F8FF8427FCFFE81FFEFFF18FFFFFF349
:1000E400CFFFFFF3CFFFFFF18FFF7FF817FF3FE450
:1000F40021FF1F83E0FE0007F07E0007F03C000FA5
:10010400F800001FF800003FF800007FF800007FAF
:10011400F800007FF800007FF000003FE000000FCF
:10012400C00000000000000000000000000000000B
:10013400000007F000001FFFF0001FFFFE00383F23
:10014400FEFE383FFE00783FFEFE783FFE00383F5B
:10015400FEFE383FFE001FFFF8001FFFC00007FE31
:10016400000007F0000007F0000007F0000007F0AF
:10017400000007F0000007F0000007F0000007F09F
:10018400000007F0000007F0000007F00000000086
:10019400000000000000000000000000000000005B
:1001A4000000000000000000005F000000070007DE
:1001B40000147F147F14242A7F2A122313086462F4
:1001C40036495522500005030000001C224100005E
:1001D40041221C00082A1C2A0808083E080800506E
:1001E400300000080808080800303000002010081B
:1001F40004023E5149453E00427F4000426151495C
:10020400462141454B311814127F10274545453985
:100214003C4A4949300171090503364949493606C2
:100224004949291E003636000000563600000008F1
:10023400142241141414141441221408000201510C
:100244000906324979413E7E1111117E7F4949499F
:10025400363E414141227F4141221C7F4949494167
:100264007F090901013E414151327F0808087F009E
:10027400417F41002040413F017F081422417F40DB
:100284004040407F0204027F7F0408107F3E4141CA
:10029400413E7F090909063E4151215E7F09192922
:1002A40046464949493101017F01013F4040403FF1
:1002B4001F2040201F7F2018207F6314081463032D
:1002C40004780403615149454300007F414102041D
:1002D40008102041417F0000040201020440404014
:1002E4004040000102040020545454787F484444A0
:1002F400383844444420384444487F3854545418CB
:10030400087E090102081454543C7F080404780050
:10031400447D40002040443D00007F1028440041BB
:100324007F40007C041804787C0804047838444432
:1003340044387C14141408081414187C7C0804042D
:10034400084854545420043F4440203C4040207CFE
:100354001C2040201C3C4030403C44281028440CC5
:100364005050503C4464544C440008364100000052
:100374007F0000004136080000000000000000007B
:1003840000007E1111117E7F454545397F49494959
:10039400367F01010103C07E417FC07F4949494145
:1003A40077087F087722494949367F2010087F7FE4
:1003B4002013087F7F08142241403E01017F7F0201
:1003C40004027F7F0808087F3E4141413E7F0101CE
:1003D400017F7F090909063E4141412201017F0154
:1003E40001274848483F1E217F211E6314081463D7
:1003F4007F40407FC00F1010107F7F407C407F7F84
:10040400407C40FF017F4848307F4830007F7F4870
:10041400484830224949493E7F083E413E76090911
:10042400097F20545454787C545454247C54545498
:10043400287C0404040CC078447CC03854545418F8
:100444006C107C106C28445454287C2010087C7C4C
:100454002112087C7C10102844403804047C7C0859
:1004640010087C7C1010107C38444444387C04040C
:10047400047C7C14141408384444442004047C048C
:10048400040C5050503C18247C2418442810284450
:100494007C40407CC00C1010107C7C4078407C7CFC
:1004A400407840FC7C545050207C5020007C7C5090
:1004B40050502028445454387C103844384834145C
:1004C400147C1027E80364000A00010000100001F6
:1004D4001000010000000000000000000000000007
:1004E400256920200025692525202000204C4E5315
:1004F4004F4C4445522000506F776572656420620A
:1005040079204C6E4B4F78202620526164696F56D7
:100514006574616C00484541540020202020004F40
:10052400464620202020000001002D4E414E004967
:100534004E46000001000200D8040A000400DA0458
:100544000B006001F0041E006B01FB04050089012F
:10055400190505008E011E050800930123050500F9
:100564009B011E050500A00119050500A5011E0536
:100574000500AA011E050800AF0123050100BB0107
:100584002C050000F894EE27ECBBF1E0FBBFEBBFB9
:10059400E5BF8DE0A2E0BB27ED938A95E9F780E003
:1005A40094E0A0E6ED930197E9F7E8E3F5E085919F
:1005B4009591009761F0A591B59105901590BF01B3
:1005C400F00105900D920197E1F7FB01F0CFEFE503
:1005D400EDBFE4E0EEBFC0E6D1E0A5C3AA93EED53B
:1005E400E078E03809F4979AECD5E074E03409F443
:1005F400979AE7D5E072E03209F4979AE2D5E07170
:10060400E03109F4979ADDD5E870E83009F4979A57
:10061400D8D5E470E43009F4979AD3D5E270E23087
:1006240009F4979ACED5E170E13009F4979A969A35
:10063400969877C3AA9396989798E981E71529F431
:10064400772011F4C1D509F007C0959ABDD511F0F2
:10065400949A01C094989598A881C0DF798097985E
:1006640035C0E1B3E86FE1BB9398A4EFB1E0F3D6F2
:10067400939AA4EFB1E0ABD5A1E0ADD5A6E3AFD595
:10068400A0E0A9D5A1E1AFD5AAE3A9D5A5E0ABD552
:10069400A9E2D0DF0895ABD548805980ABD5A6E355
:1006A400C9DFF201309719F4A8D5A0E00EC0A8D58F
:1006B40019F4A3D5A0E409C0A7D519F49ED5A0ECDC
:1006C40004C0A6D519F499D5A0E8B4DF22960895FC
:1006D400AA9390D5AAE283D5AC8181D5AB817BD591
:1006E400ABE27DD5AA817BD5A98175D5ACE2A2DF29
:1006F400EAC07DD5EB81EA93EC81EA93EC81EA933D
:10070400AD81E6DF949A79D5AA8169D5A98192DF72
:10071400DAC0AA934FD7AE85A03818F0EE85E0541E
:10072400EE8700E0053008F070C0EE85F0E0B09789
:10073400A5E0B0E0BED6EA55FE4FDF01E02F6CD550
:10074400149120E0EF81E21709F44BC041E0F2017B
:10075400309711F059D581F4E22FAD8561D5E22FA0
:10076400AE855ED5EE85EA93E985EE0FEE0FEE0FCA
:10077400AF85AE0FA15014C043D511F049D589F40B
:10078400ED85EA93EF81EE0FEE0FEE0FAE85AE0F1F
:10079400A150AA93E22FAE8543D5E22FAF85AE0FC9
:1007A40097DF949A30E03830D0F45E815030A1F075
:1007B400E42FE12341F021D5EB85FC8570D6AE2FE3
:1007C4000ED5AB8506C019D52ED569D6AE2F07D563
:1007D400A98530DF5150EACF440F3F5FE4CF2F5F4C
:1007E400B1CFF201309711F00FD529F4EF81AD8527
:1007F400EA0FED8708C004D511F00AD521F4EF8182
:10080400AC85EA0FEC870F5F8DCFDBD62F9608956A
:10081400AA931A93EA81E03011F4E1E0EA83D4D494
:1008240011F4E1E0E983F201EBD411F0F1D421F405
:100834001F81E885EF831887F9D4F8D4F7D4F9D465
:10084400F8D4F4D4A98565DF18812A960895AA936B
:100854001A9310E0EA81E03011F4E1E0EA83B4D4C1
:1008640011F4E1E0E983EAD4E03091F0E7D4EA93CB
:10087400A6E01A02F001AB81EA02F001AA85D0D405
:10088400D5D4D7D4D6D4D2D4A985C2DF1F5FEBCFB9
:1008940018812D960895ABD491D6ACD4E3E8EA93AD
:1008A400A9D4AFEA15DF949A00E010E0003CEAE531
:1008B4001E0740F4A2D4AC8192D4AB81BBDE0F5F9F
:1008C4001F4FF4CF82D62496089591D4609772D6A0
:1008D400F20196D411F09CD461F4EA8DEE83EB8D91
:1008E400EA8FEE81EB8FE88DEE83E98DE88FEE8160
:1008F400E98FA98DBB27EB8DF0E0AE1BBF0BAC8B52
:10090400BD8BA88DBB27EA8DF0E0AE1BBF0BAA8B75
:10091400BB8B9BD4109721F4AA89BB89109709F04B
:1009240005C0EB8DEA93EB8DEA9372C0E1E0F0E051
:100934008FD4E1E0F0E0E887F987AD89AA2342F497
:10094400EC89FD89A0D5EC8BFD8B85D481D407C0BF
:10095400EC89FD89309719F4E0E0EA87EB87AB89ED
:10096400AA233AF47BD48FD5EA8BFB8B74D4E88723
:10097400F98774D46AD475D454F4E0E0EF834C89D5
:100984005D896CD4EC8BFD8B4A8B5B8B02C0E1E000
:10099400EF8364D4EE0FFF1FEE87FF8756D4EE85F6
:1009A400FF85EA1BFB0BAF0150D4FA01EA1BFB0BDA
:1009B400EC87FD870B8D11272A8D3327E0E0E88B28
:1009C400E98BEC89FD8950D44CD404F50A932A931D
:1009D400A88DB98D8EDEEF81E03011F048D401C0CE
:1009E4004BD455232AF4EE85FF854E0F5F1F0AC0B2
:1009F400EC85FD854E0F5F1FEF81E03011F03CD494
:100A040001C035D43ED431963FD4DBCF0A932A9328
:100A1400A88DB98D6EDED5D56C960895C6D537D41C
:100A2400E889F9896A897B8929D57F936F93FF9334
:100A3400EF9332D4B0D522D5AF91BF918F919F91CE
:100A440060D57F936F93FF93EF9321D4E885F98565
:100A54006A857B8513D5AF91BF918F919F917BD58B
:100A64001BD407D5E5E0F0E060E070E074D5A5E0C4
:100A7400B0E080E090E045D55FC3B9D39DD530E0C8
:100A84000C85AC85BB27EA85C7D3A02FB0E0E9D39A
:100A94000CF05EC01D85AD85BB27EB85BDD3A12FB2
:100AA400B0E0DFD30CF052C0FCD3E491E07819F04D
:100AB400FCD3FFD302C0F9D3FFD31BDEF2D3E491FE
:100AC400E07419F0F2D3F5D302C0EFD3F5D311DEFD
:100AD400E8D3E491E07219F0E8D3EBD302C0E5D394
:100AE400EBD307DEDED3E491E07119F0DED3E1D37A
:100AF40002C0DBD3E1D3FDDDD4D3E491E87019F077
:100B0400D4D3D7D302C0D1D3D7D3F3DDCAD3E4919E
:100B1400E47019F0CAD3CDD302C0C7D3CDD3E9DD75
:100B2400C0D3E491E27019F0C0D3C3D302C0BDD3E3
:100B3400C3D3DFDDB6D3E491E17019F0B6D3B9D3F2
:100B440002C0B3D3B9D3D5DD3F5FA5CF0F5F99CF33
:100B54003AD52E960895B3D3CBD3E0EEF7E049C04F
:100B640046D32197CAD3CDD3D1D3D5D3DAD3C0D3E7
:100B7400DDD3DFD3E1D323960895A1D3E3D3E0EE0D
:100B8400F7E037C034D32597B8D3BBD3DED3C3D370
:100B9400C8D3D8D3CBD32DC02AD32597AD81BE815A
:100BA4001597B4F0B3D3E1E0F0E060E070E0F8D47E
:100BB400E4E6F0E060E070E0F3D4E0E5F0E060E06B
:100BC40070E0EED4AFEFB0E080E090E027DF01C04A
:100BD400E0E0EABD92D3E9EEF4E0ABD3B6D384E02F
:100BE400ADD22896E0E0EC8388D3ACD3EAE5F0E01C
:100BF400B0D3FA93EA93A0D327960895A6E0ADD391
:100C04004F01A7E0AAD35F01A0E0A7D36F01A2E040
:100C1400A4D3E093B701F093B801A1E076D066279E
:100C24007727B3D3EFEFF3E060E070E0AED3A4E650
:100C3400B0E080E090E0F2DEE093B901F093BA0115
:100C440008950A921A92FA926A937A938A939A93DB
:100C5400AA93BA93EA93FA93EFB7EA936394E6E01C
:100C6400E61519F466240FD023D0E991EFBFF9916A
:100C7400E991B991A9919991899179916991F990A1
:100C840019900990189522FE02C09B9B01C007C0D1
:100C9400E1E02E2620FC02C0AC9801C0AC9AE89496
:100CA4009D99689421F8E8949B99689422F8089592
:100CB40020FE1AC071D3169714F0ECE3E8BD6CD390
:100CC4001B9714F0E4E6E8BD67D3559714F0E0EA07
:100CD400E8BD62D3999714F0E8ECE8BDC814D904D0
:100CE40014F4E0E0E8BD02C0E0E0E8BD21FE0CC081
:100CF400A091B901B091BA014FDF52D3AA16BB0635
:100D040014F4C09A01C0C0980895AA93E881E7B981
:100D14008BE18A95F1F7369A349BFECF349AE4B18D
:100D2400F5B121960895E7E0E7BBE0E0E8BBE0E138
:100D3400E4BBE0E0E5BBE8EFE1BBE0E0E2BBE5E01B
:100D4400E3BFE0E0E2BFE1EFEFBDE5E0EEBDE0E0F0
:100D5400EDBDECBDE7BDE6BDEBBDEABDE9BDE8BD5B
:100D6400E2BDE5BDE4BDE3BDE1E0E9BFE0E0E5BF30
:100D7400EBB9E8E0EAB9E6E8E0BDE0E0E0BDECE0CC
:100D8400E9B9E0E8E8B9E0E0E7B9E7E8E6B9E0E0C6
:100D9400E0BFEDB9E6BFEABD64DCAAE5B0E07BDC08
:100DA400E0E6F1E0D6D2C5D2CDD255D2D2D2C1D26C
:100DB400E3E0EA93A3E04BDDA8EEB3E04CD3AFEF5E
:100DC400BFEF69DD17D2E5E0F0D2EFD2F1D2A6E2AF
:100DD400B0E053DE0FD2E8E2F1D2E8E2F3D20AD275
:100DE400EDE2E3D2E2D2E4D2A6E2B1E046DE02D200
:100DF400E0E5E4D2E0E5E6D2E2E0EA93E5E5D5D247
:100E0400D4D2D6D2A6EAB0E038DEF4D1E8E7D6D21E
:100E1400E8E7D8D2EBE6F1E09CD28BD2EBE7F0E046
:100E240088D2ECE1FDE5D2D2D5D27894E7DE20FE7B
:100E340011C0D60190DED40193DE8C149D041CF401
:100E4400E9E8F1E002C0EEE8F1E0FA93EA93C4D2F3
:100E5400C1D20BC0E3E9F1E06CD274D249D2C4D25E
:100E6400EBE9F1E066D2B8D2B5D221FE12C098D235
:100E740084DED50187DE94D2AA16BB061CF4E0EA10
:100E8400F1E002C0E5EAF1E0FA93EA93B1D2A2D22A
:100E940015C0EAEAF1E04DD2ABD29CD2E4E6F0E030
:100EA400EA15FB0514F4A4E601C0A0E0B0E074DE8A
:100EB400EFEAF1E03ED246D245D296D2B7CFFFCF89
:100EC40096D17CD39DD212965ED33097F1F098D20E
:100ED4009AD28F01309761F00230E0E01E0770F083
:100EE400F80131978F01AA81BB811496ED93FC938D
:100EF40087D212968BD23197AC81A08381D243D30F
:100F0400FF2312F07DD282D204C07AD2A4D1ED9311
:100F1400FC935BD3259608956AD126974BD310E0B2
:100F2400AC85BD85E0E0F0E0ED93FC9397D131967C
:100F3400EA8BFB8B3197E4912E2FE03009F4F8C053
:100F4400E12FE03031F4253211F411E001C064D214
:100F5400EEC0E130A1F4253211F45ED2E7C012E014
:100F640040E000E02D3211F401E0E1C02B3211F435
:100F74004BE2DDC0203211F440E2D9C002C0E230BD
:100F840039F450E013E0203311F40068D0C003C0FA
:100F9400E33009F0CCC0203310F02A3308F007C046
:100FA400AAE05A9F502DE22FE0535E0FC0C0E22FFB
:100FB400E33631F438D265D1A481AA9337D2B6C0CE
:100FC400E33731F430D238D239D2E1D01E2F08C001
:100FD400E03751F428D230D231D2E4D01E2F086049
:100FE40002600F7730E02EC0E43611F0E93611F4D8
:100FF400046002C0E53729F4E6ECF4E024D215E0FD
:101004000BC0E83511F4086003C0E83709F08EC05E
:10101400E0EDF4E018D214E002FF11C004D20CD2C7
:1010240017D1AB85AA232AF4EA85FB852CD210D1EB
:101034004DE2403011F01F5F01C00B7F03C0F3D1BC
:10104400FBD106D100FD10C0151770F407FF08C0CE
:1010540002FF04C00B7F242F115001C020E301C004
:1010640020E2DAD15150F0CF312F01FF15C03030DA
:1010740091F003FF05C0EE81FF812591E4D105C005
:10108400AE81BF812D91AE83BF83C6D1503009F0AC
:1010940051503150ECCF41C020E3EE81FF8177D233
:1010A400E887F987EE81FF813296CDD1E885F9850D
:1010B40000D1D7D040F02F5FFFD0EA85FB85EA1B33
:1010C400FB0BC6D0F3CF2A3328F003FF02C0295FFD
:1010D40001C0295D04FD18C0213318F4EDD0119727
:1010E40009F409C0531710F000FF01C011C020E239
:1010F40007FF0AC020E3006102FF06C00B7F4A938A
:1011040095D1503009F0515087D1503009F05150E9
:101114003150D2D0129708F0BFCF00FF07C0503033
:1011240029F05150E0E2EA9381D1F9CF10E0FECEEC
:10113400AC85BD8528D245D264960895FF92F82ED9
:1011440026973AD283D1309711F485D01CC0DE01A2
:1011540016968BD18D017AD176D1E0E0E887E987C4
:10116400DE011A9682D10FD2E4D01A930A93E2E6F2
:10117400F7E0DFD0DE011A96CFDE9F01AE81BF819A
:10118400E0E0EC93F9011FD22A96FF9008952FD046
:10119400A991B991EE27FF276D91662311F031963D
:1011A400FBCF089524D0AA27BB27E991F991059094
:1011B400002011F01196FBCFFD0108959798E88166
:1011C4000895969A9698FACFE981E030089543D12C
:1011D400E0E0EA9308952EDAE0E0EA9308952ADA4B
:1011E400E1E0EA93089526DAA4E1B0E0F0CFBA93FF
:1011F400AA930895E0E0EA930895E1E0EA9308955C
:10120400EA35A0E0FA070895E43BA0E0FA07089560
:10121400EE30A1E0FA070895F0E0EA0FFB1F08950D
:10122400EA0FEA930895E985FA850895E985EA9332
:101234000895E885F985FA93EA930895AB85BC850A
:10124400EE27A10FBE1FEC910895AC89BD890895C6
:10125400EA87FB870895EFEFFFEF0895EA89FB899A
:101264000895AE17BF070895A889B9890895EA8536
:10127400FB850E0F1F1F0895E885F9852E0F3F1F6C
:101284000895E889F9890895E88BF98B0895AC8568
:10129400BD858E859F850895AC81BD818E819F819A
:1012A4000895E32FAC81BD81B7CF0A931A931395A8
:1012B4000895AA85BB850895A885B985089597DF03
:1012C4002597FE01FA93EA93E4EEF4E0FA93EA93A5
:1012D400AADFEAD065D184E031DF2896E0E0EB8331
:1012E400FE01FA93EA93E2E3F0E0FA93EA930895B5
:1012F400EAE0F0E0FA93EA930895FE01FA93EA93A0
:101304000895E4EEF4E0FA93EA930895ED81FE8102
:10131400CBD046D1089584E011DF2896E0E0EB833A
:10132400ECCFEAE7F0E0FA93EA930895E0E0F8EF0F
:101334000895FA93EA9308958EDFFBDFE3E0EA93DE
:10134400A3E085CAE2E3F0E0F4CF6DDFADD028D1AD
:101354000895EFDFE0E0F0E00895D7DC6627772713
:101364001FD1E0E0F0E060E070E01AD1EFEFF3E0CD
:1013740060E070E015D1E0E0F0E060E070E010D1F2
:10138400A0EEB1E080E090E049CB0AD1E0E0F0E0EB
:1013940060E070E005D10895D601A819B90908954F
:1013A400A091B701B091B8010895EA93E0E20895DD
:1013B400EA93EFE1F0E0BDDF4EDFBBCFEA93EFEA63
:1013C400EA930895EA93A0E0B0E07FCAB2DF43DF76
:1013D400B0DF13CFA1E03BCAEFE0F0E0AADFEEE11B
:1013E400F0E0A7DFA3DFF2CFE0E0F0E0A2DFA4CFDC
:1013F400EFE0F0E09EDFE6E4F0E09BDF97DFE6CF8E
:10140400AA81BB8108951496BED00895ED91FD91F3
:101414003196FE93EE9308952A93AD85BE85EF85AC
:10142400F889099508952DDF34972ECFAD85BE85B3
:10143400EF85F8890995089517DFE5CFEE83FF83DB
:10144400AE81BF810895EE83FF830895DE011C966B
:101454000CD099D00895109639F080ED97E001975B
:10146400F1F7A8951197C9F708950024AF0DB01DA1
:101474000895AE0FBF1F861F971F0895EA1BFB0B2D
:10148400680B790B0895F195E195F0400895F09576
:1014940060957095E195FF4F6F4F7F4F0895EF2F43
:1014A400FF27E7FDFFEF08956F2F660F660B762F7A
:1014B4000895FA9FF02DEB9FF00DEA9FE02DF10DBA
:1014C40008957A9F702D6B9F700DF89F700DE99FA2
:1014D400700D6A9F602D710DFB9F600D711DE89F5B
:1014E400600D711D8827FA9FF02D610D781FEB9F09
:1014F400F00D611D781FEA9FE02DF10D681F781F24
:1015040008952ED0DEDF0EF4C2DF08953F934F938B
:101514005F93002411244427552730E2AA0FBB1FF0
:10152400881F991F001C111C441F551F0E1A1F0AE7
:10153400460B570B28F40E0E1F1E461F571F01C0E3
:10154400A1603A9559F7FD01BC01D001CA015F9130
:101554004F913F91089504D0D9DF0EF498DF089598
:10156400E89477FF02C093DF689497FF0BC00024D0
:10157400A095B095809590951196801D901D00F8CA
:10158400039400FA0895ED91FC9111970895059044
:10159400F491E02D0895E881F9816A817B810895B1
:1015A4007A936A93FA93EA9308959A938A93BA93EF
:1015B400AA9308955A934A933A932A931A930A93AF
:1015C40008955D814C813B812A81198108810895A8
:00000001FF
