:020000009EC29E
:10000200FECFFDCFFCCFFBCFFACFF9CFF8CFF7CFA2
:10001200DDC5F5CFF4CFF3CFF2CFF1CFF0CFEFCFF5
:10002200EECFEDCF000000010000000A0000001C2E
:100032000000003E0000007C000000F8000001F01B
:10004200000003E0000007C000000F8000007F00F6
:100052000000BE0000017C000001FC000001F40071
:100062000002E80000047000000880000011000097
:10007200002200000044000000880000011000007F
:10008200022000000440000008800000110000006F
:100092000A000000140000002000000040000000E0
:1000A200000000000003F0000007FC00000FFE004B
:1000B200001FFE00001FFE00001FFE00001FFC00CC
:1000C200001FF800001FF0003C0FE0007E0FE00070
:1000D2007F07C1F8FF8427FCFFE81FFEFFF18FFFB7
:1000E200FFF3CFFFFFF3CFFFFFF18FFF7FF817FF83
:1000F2003FE421FF1F83E0FE0007F07E0007F03C93
:10010200000FF800001FF800003FF800007FF80021
:10011200007FF800007FF800007FF000003FE00061
:10012200000FC000000000000000000000000000FE
:100132000000000007F000001FFFF0001FFFFE009C
:10014200383FFEFE383FFE00783FFEFE783FFE005D
:10015200383FFEFE383FFE001FFFF8001FFFC000C1
:1001620007FE000007F0000007F0000007F00000A3
:1001720007F0000007F0000007F0000007F00000A1
:1001820007F0000007F0000007F0000007F0000091
:10019200000000000000000000000000000000005D
:1001A20000000000000000000000005F00000007E7
:1001B200000700147F147F14242A7F2A12231308B5
:1001C200646236495522500005030000001C22419A
:1001D200000041221C00082A1C2A0808083E0808C0
:1001E20000503000000808080808003030000020E5
:1001F200100804023E5149453E00427F40004261E0
:100202005149462141454B311814127F102745456B
:1002120045393C4A49493001710905033649494982
:1002220036064949291E00363600000056360000BF
:100232000008142241141414141441221408000258
:1002420001510906324979413E7E1111117E7F49E1
:100252004949363E414141227F4141221C7F494961
:1002620049417F090901013E414151327F08080895
:100272007F00417F41002040413F017F081422411D
:100282007F404040407F0204027F7F0408107F3E8F
:100292004141413E7F090909063E4151215E7F09E4
:1002A200192946464949493101017F01013F404030
:1002B200403F1F2040201F7F2018207F6314081416
:1002C200630304780403615149454300007F4141BF
:1002D200020408102041417F000004020102044090
:1002E20040404040000102040020545454787F48AA
:1002F2004444383844444420384444487F385454B1
:100302005418087E090102081454543C7F0804045E
:100312007800447D40002040443D00007F10284486
:1003220000417F40007C041804787C08040478387B
:10033200444444387C14141408081414187C7C08AF
:100342000404084854545420043F4440203C404094
:10035200207C1C2040201C3C4030403C442810287B
:10036200440C5050503C4464544C44000836410004
:1003720000007F000000413608000000000000007D
:10038200000000007E1111117E7F454545397F49ED
:100392004949367F01010103C07E417FC07F49493F
:1003A200494177087F087722494949367F2010085A
:1003B2007F7F2013087F7F08142241403E01017F86
:1003C2007F0204027F7F0808087F3E4141413E7F51
:1003D2000101017F7F090909063E414141220101D4
:1003E2007F0101274848483F1E217F211E631408D0
:1003F20014637F40407FC00F1010107F7F407C400D
:100402007F7F407C40FF017F4848307F4830007F3B
:100412007F48484830224949493E7F083E413E765E
:100422000909097F20545454787C545454247C5430
:100432005454287C0404040CC078447CC0385454BE
:1004420054186C107C106C28445454287C201008DA
:100452007C7C2112087C7C10102844403804047CE7
:100462007C0810087C7C1010107C38444444387C92
:100472000404047C7C141414083844444420040406
:100482007C04040C5050503C18247C24184428103E
:1004920028447C40407CC00C1010107C7C4078408A
:1004A2007C7C407840FC7C545050207C5020007C66
:1004B2007C5050502028445454387C1038443848DA
:1004C2003414147C1027E80364000A0001000010B1
:1004D2000001100001000000000000000000000008
:1004E200256920200025692525202000204C4E5317
:1004F2004F4C4445522000506F776572656420620C
:1005020079204C6E4B4F78202620526164696F56D9
:100512006574616C000001002D4E414E00494E464B
:1005220000000A000400D8040B006001EE041E0063
:100532006B01F90401008D0118050000F894EE2703
:10054200ECBBF1E0FBBFEBBFE5BF8DE0A2E0BB2758
:10055200ED938A95E9F780E094E0A0E6ED930197A8
:10056200E9F7E4E2F5E085919591009761F0A591B4
:10057200B59105901590BF01F00105900D9201977C
:10058200E1F7FB01F0CFEFE5EDBFE4E0EEBFC0E63F
:10059200D1E02BC3AA934CD5E078E03809F4979ABE
:1005A2004AD5E074E03409F4979A45D5E072E03216
:1005B20009F4979A40D5E071E03109F4979A3BD556
:1005C200E870E83009F4979A36D5E470E43009F41B
:1005D200979A31D5E270E23009F4979A2CD5E170FE
:1005E200E13009F4979A969A9698FDC2AA93969842
:1005F2009798E981E71529F4772011F41FD509F0BE
:1006020007C0959A1BD511F0949A01C094989598B9
:10061200A881C0DF7980979835C0E1B3E86FE1BB6C
:100622009398A4EFB1E03FD6939AA4EFB1E009D535
:10063200A1E00BD5A6E30DD5A0E007D5A1E10DD52C
:10064200AAE307D5A5E009D5A9E2D0DF089509D527
:100652004880598009D5A6E3C9DFF201309719F421
:1006620006D5A0E00EC006D519F401D5A0E409C054
:1006720005D519F4FCD4A0EC04C004D519F4F7D4C0
:10068200A0E8B4DF22960895AA93EED4AAE2E1D4B8
:10069200AC81DFD4AB81D9D4ABE2DBD4AA81D9D48B
:1006A200A981D3D4ACE2A2DFEAC0DBD4EB81EA9326
:1006B200EC81EA93EC81EA93AD81E6DF949AD7D498
:1006C200AA81C7D4A98192DFDAC0AA939BD6AE854C
:1006D200A03818F0EE85E054EE8700E0053008F00F
:1006E20070C0EE85F0E0B097A5E0B0E00AD6EA551A
:1006F200FE4FDF01E02FCAD4149120E0EF81E21710
:1007020009F44BC041E0F201309711F0B7D481F403
:10071200E22FAD85BFD4E22FAE85BCD4EE85EA933D
:10072200E985EE0FEE0FEE0FAF85AE0FA15014C0AC
:10073200A1D411F0A7D489F4ED85EA93EF81EE0FED
:10074200EE0FEE0FAE85AE0FA150AA93E22FAE854B
:10075200A1D4E22FAF85AE0F97DF949A30E0383004
:10076200D0F45E815030A1F0E42FE12341F07FD438
:10077200EB85FC85BCD5AE2F6CD4AB8506C077D497
:100782008CD4B5D5AE2F65D4A98530DF5150EACFD0
:10079200440F3F5FE4CF2F5FB1CFF201309711F0EA
:1007A2006DD429F4EF81AD85EA0FED8708C062D4DC
:1007B20011F068D421F4EF81AC85EA0FEC870F5F6A
:1007C2008DCF27D62F960895AA931A93EA81E03007
:1007D20011F4E1E0EA8332D411F4E1E0E983F201B9
:1007E20049D411F04FD421F41F81E885EF83188793
:1007F20057D456D455D457D456D452D4A98565DF8C
:1008020018812A960895AA931A9310E0EA81E0309B
:1008120011F4E1E0EA8312D411F4E1E0E98348D46F
:10082200E03091F045D4EA93A6E01A02F001AB81E0
:10083200EA02F001AA852ED433D435D434D430D48C
:10084200A985C2DF1F5FEBCF18812D96089509D4C9
:10085200DDD50AD4E3E8EA9307D4AFEA15DF949A28
:1008620000E010E0003CEAE51E0740F400D4AC8151
:10087200F0D3AB81BBDE0F5F1F4FF4CFCED52496F2
:100882000895EFD36097BED5F201F4D311F0FAD3F5
:1008920061F4EA8DEE83EB8DEA8FEE81EB8FE88DCA
:1008A200EE83E98DE88FEE81E98FA98DBB27EB8D71
:1008B200F0E0AE1BBF0BAC8BBD8BA88DBB27EA8DC6
:1008C200F0E0AE1BBF0BAA8BBB8BF9D3109721F4C0
:1008D200AA89BB89109709F005C0EB8DEA93EB8DCD
:1008E200EA9372C0E1E0F0E0EDD3E1E0F0E0E88706
:1008F200F987AD89AA2342F4EC89FD89ECD4EC8B0B
:10090200FD8BE3D3DFD307C0EC89FD89309719F45F
:10091200E0E0EA87EB87AB89AA233AF4D9D3DBD4A8
:10092200EA8BFB8BD2D3E887F987D2D3C8D3D3D350
:1009320054F4E0E0EF834C895D89CAD3EC8BFD8BE4
:100942004A8B5B8B02C0E1E0EF83C2D3EE0FFF1F45
:10095200EE87FF87B4D3EE85FF85EA1BFB0BAF0161
:10096200AED3FA01EA1BFB0BEC87FD870B8D112737
:100972002A8D3327E0E0E88BE98BEC89FD89AED341
:10098200AAD304F50A932A93A88DB98D8EDEEF813E
:10099200E03011F0A6D301C0A9D355232AF4EE8585
:1009A200FF854E0F5F1F0AC0EC85FD854E0F5F1F4E
:1009B200EF81E03011F09AD301C093D39CD33196EA
:1009C2009DD3DBCF0A932A93A88DB98D6EDE21D5F4
:1009D2006C96089512D595D3E889F9896A897B893D
:1009E20075D47F936F93FF93EF9390D3FCD46ED41F
:1009F200AF91BF918F919F91ACD47F936F93FF93EF
:100A0200EF937FD3E885F9856A857B855FD4AF91C3
:100A1200BF918F919F91C7D479D353D4E5E0F0E091
:100A220060E070E0C0D4A5E0B0E080E090E091D456
:100A3200BDC217D3E9D430E00C85AC85BB27EA856B
:100A420025D3A02FB0E047D30CF05EC01D85AD8545
:100A5200BB27EB851BD3A12FB0E03DD30CF052C0D6
:100A62005AD3E491E07819F05AD35DD302C057D338
:100A72005DD31BDE50D3E491E07419F050D353D30D
:100A820002C04DD353D311DE46D3E491E07219F084
:100A920046D349D302C043D349D307DE3CD3E491C2
:100AA200E07119F03CD33FD302C039D33FD3FDDD0F
:100AB20032D3E491E87019F032D335D302C02FD388
:100AC20035D3F3DD28D3E491E47019F028D32BD386
:100AD20002C025D32BD3E9DD1ED3E491E27019F0D5
:100AE2001ED321D302C01BD321D3DFDD14D3E49163
:100AF200E17019F014D317D302C011D317D3D5DD87
:100B02003F5FA5CF0F5F99CF86D42E96089511D35C
:100B120029D3E0EEF7E032C0A4D2219728D32BD319
:100B2200ED81FE812DD334D31DD3E0E0F8EF35D330
:100B320037D323960895FDD239D3E0EEF7E01EC0F5
:100B420090D2259714D317D3A8D21AD321D32ED358
:100B5200E0E0F8EF13C085D2259709D3E7EEF4E081
:100B62001CD39BD2C9D344D484E022D22896E0E09D
:100B7200EC83FDD21BD3EAE5F0E01BD3FA93EA93B0
:100B82000FD327960895A6E018D34F01A7E015D3F7
:100B92005F01A0E02AD36F01A1E027D3E09389018E
:100BA200F0938A01A2E013D06627772736D3EFEFBE
:100BB200F3E060E070E031D3A4E6B0E080E090E0E2
:100BC20009DFE0938B01F0938C0108951895AA93A5
:100BD200E881E7B98BE18A95F1F7369A349BFECF2B
:100BE200349AE4B1F5B121960895E7E0E7BBE0E07D
:100BF200E8BBE4BBE5BBE8EFE1BBE0E0E2BBE5E07C
:100C0200E3BFE0E0E2BFE3EFEFBDE1E0EEBDE0E035
:100C1200EDBDECBDE7BDE6BDEBBDEABDE9BDE8BD9E
:100C2200E2BDE5BDE4BDE3BDE1E0E9BFE0E0E5BF73
:100C3200EBB9E8E0EAB9E6E8E0BDE0E0E0BDECE00F
:100C4200E9B9E0E8E8B9E0E0E7B9E7E8E6B9E0E009
:100C5200E0BFEDB9E6BFE1DCAAE5B0E0F8DCE0E632
:100C6200F1E0A7D29AD2A2D230D2A3D296D2E3E0B6
:100C7200EA93A3E0C8DDA8EEB3E015D3AFEFBFEF70
:100C8200E6DDF2D1E5E0D0D2CFD2D1D2A6E2B0E019
:100C9200D0DEEAD1E8E2D1D2E8E2D3D2E5D1EDE288
:100CA200C3D2C2D2C4D2A6E2B1E0C3DEDDD1E0E556
:100CB200C4D2E0E5C6D2E2E0EA93E5E5B5D2B4D229
:100CC200B6D2A6EAB0E0B5DECFD1E8E7B6D2E8E721
:100CD200B8D2EBE6F1E06DD260D2EBE7F0E05DD2A4
:100CE200ECE1FDE55AD2F1D158D2C1D1A1E08BDDC0
:100CF200ACD20DDFAAD210DFA8D21DDFA6D220DF30
:100D0200A5E0B0E028DF78943EDFA0918B01B0919E
:100D12008C0121DFD601FBDED401FEDEA091890128
:100D2200B0918A0108DFD5010BDFACE2B1E0BBD2A2
:100D3200EBCFFFCF96D16AD38BD212964CD330979A
:100D4200F1F086D288D28F01309761F00230E0E074
:100D52001E0770F0F80131978F01AA81BB811496AA
:100D6200ED93FC9375D2129679D23197AC81A08320
:100D72006FD231D3FF2312F06BD270D204C068D28B
:100D8200A4D1ED93FC9349D3259608956AD1269771
:100D920039D310E0AC85BD85E0E0F0E0ED93FC9343
:100DA20097D13196EA8BFB8B3197E4912E2FE0306D
:100DB20009F4F8C0E12FE03031F4253211F411E0EA
:100DC20001C052D2EEC0E130A1F4253211F44CD26E
:100DD200E7C012E040E000E02D3211F401E0E1C092
:100DE2002B3211F44BE2DDC0203211F440E2D9C0C3
:100DF20002C0E23039F450E013E0203311F400680D
:100E0200D0C003C0E33009F0CCC0203310F02A3345
:100E120008F007C0AAE05A9F502DE22FE0535E0F60
:100E2200C0C0E22FE33631F426D265D1A481AA9361
:100E320025D2B6C0E33731F41ED226D227D2E1D072
:100E42001E2F08C0E03751F416D21ED21FD2E4D0B2
:100E52001E2F086002600F7730E02EC0E43611F0DA
:100E6200E93611F4046002C0E53729F4E6ECF4E057
:100E720012D215E00BC0E83511F4086003C0E83760
:100E820009F08EC0E0EDF4E006D214E002FF11C0DA
:100E9200F2D1FAD117D1AB85AA232AF4EA85FB85D0
:100EA2001AD210D14DE2403011F01F5F01C00B7F0A
:100EB20003C0E1D1E9D106D100FD10C0151770F4CD
:100EC20007FF08C002FF04C00B7F242F115001C08E
:100ED20020E301C020E2C8D15150F0CF312F01FFF1
:100EE20015C0303091F003FF05C0EE81FF812591DE
:100EF200D2D105C0AE81BF812D91AE83BF83B4D163
:100F0200503009F051503150ECCF41C020E3EE8116
:100F1200FF8165D2E887F987EE81FF813296BBD1E6
:100F2200E885F98500D1D7D040F02F5FFFD0EA8560
:100F3200FB85EA1BFB0BC6D0F3CF2A3328F003FF55
:100F420002C0295F01C0295D04FD18C0213318F4D5
:100F5200EDD0119709F409C0531710F000FF01C03A
:100F620011C020E207FF0AC020E3006102FF06C0B1
:100F72000B7F4A9383D1503009F0515075D15030D4
:100F820009F051503150D2D0129708F0BFCF00FF74
:100F920007C0503029F05150E0E2EA936FD1F9CF07
:100FA20010E0FECEAC85BD8516D233D2649608958C
:100FB200FF92F82E269728D271D1309711F485D05E
:100FC2001CC0DE01169679D18D0168D164D1E0E0B2
:100FD200E887E987DE011A9670D1FDD1DED01A9337
:100FE2000A93EBE9F6E0D9D0DE011A96CFDE9F0133
:100FF200AE81BF81E0E0EC93F9010DD22A96FF9019
:1010020008952FD0A991B991EE27FF276D916623FC
:1010120011F03196FBCF089524D0AA27BB27E9917E
:10102200F9910590002011F01196FBCFFD01089572
:101032009798E8810895969A9698FACFE981E030D8
:10104200089531D1E0E0EA930895D0DAE0E0EA933E
:101052000895CCDAE1E0EA930895C8DAA4E1B0E0B9
:10106200F0CFBA93AA930895E0E0EA930895E1E0FD
:10107200EA930895EA35A0E0FA070895E43BA0E078
:10108200FA070895EE30A1E0FA070895F0E0EA0FBA
:10109200FB1F0895EA0FEA930895E985FA850895FA
:1010A200E985EA930895E885F985FA93EA93089524
:1010B200AB85BC85EE27A10FBE1FEC910895AC89CC
:1010C200BD890895EA87FB870895EFEFFFEF089542
:1010D200EA89FB890895AE17BF070895A889B989DF
:1010E2000895EA85FB850E0F1F1F0895E885F9858F
:1010F2002E0F3F1F0895E889F9890895E88BF98B2F
:101102000895AC85BD858E859F850895AC81BD818E
:101112008E819F810895E32FAC81BD81B7CF0A9361
:101122001A9313950895AA85BB850895A885B98554
:10113200089597DF2597FE01FA93EA93E2EEF4E031
:10114200FA93EA93AADFD8D053D184E031DF28960C
:10115200E0E0EB83FE01FA93EA93E2E3F0E0FA9334
:10116200EA930895EAE0F0E0FA93EA930895FE0123
:10117200FA93EA930895E2EEF4E0FA93EA9308957B
:10118200BBD036D184E014DF2896E0E0EB83EFCFCA
:10119200E8E7F0E0FA93EA930895FA93EA93089560
:1011A20094DFFBDFE3E0EA93A3E02DCBE2E3F0E0A0
:1011B200F4CFF3DFE0E0F0E0089509DD662777275A
:1011C20017D1E0E0F0E060E070E012D1EEEEF2E084
:1011D20060E070E00DD1E0E0F0E060E070E008D1A6
:1011E200A0EEB1E080E090E0F5CBF1DC6627772756
:1011F200FFD0E0E0F0E060E070E0FAD0EFEFF3E083
:1012020060E070E0F5D0E0E0F0E060E070E0F0D0A7
:10121200A0EEB1E080E090E0DDCBEAD0E0E0F0E0EB
:1012220060E070E0E5D00895EA93E0E20895EA9381
:10123200EFE1F0E0B2DF49DFB0CFEA93EFEAEA9301
:101242000895EA93A0E0B0E01CCBA0EEB1E00895CF
:10125200AA81BB8108951496BED00895ED91FD91A7
:101262003196FE93EE9308952A93AD85BE85EF8560
:10127200F889099508953FDF349740CFAD85BE8543
:10128200EF85F8890995089529DFE5CFEE83FF837D
:10129200AE81BF810895EE83FF830895DE011C961F
:1012A2000CD099D00895109639F080ED97E001970F
:1012B200F1F7A8951197C9F708950024AF0DB01D55
:1012C2000895AE0FBF1F861F971F0895EA1BFB0BE1
:1012D200680B790B0895F195E195F0400895F0952A
:1012E20060957095E195FF4F6F4F7F4F0895EF2FF7
:1012F200FF27E7FDFFEF08956F2F660F660B762F2E
:101302000895FA9FF02DEB9FF00DEA9FE02DF10D6D
:1013120008957A9F702D6B9F700DF89F700DE99F55
:10132200700D6A9F602D710DFB9F600D711DE89F0E
:10133200600D711D8827FA9FF02D610D781FEB9FBC
:10134200F00D611D781FEA9FE02DF10D681F781FD7
:1013520008952ED0DEDF0EF4C2DF08953F934F933F
:101362005F93002411244427552730E2AA0FBB1FA4
:10137200881F991F001C111C441F551F0E1A1F0A9B
:10138200460B570B28F40E0E1F1E461F571F01C097
:10139200A1603A9559F7FD01BC01D001CA015F91E4
:1013A2004F913F91089504D0D9DF0EF498DF08954C
:1013B200E89477FF02C093DF689497FF0BC0002484
:1013C200A095B095809590951196801D901D00F87E
:1013D200039400FA0895ED91FC91119708950590F8
:1013E200F491E02D0895E881F9816A817B81089565
:1013F2007A936A93FA93EA9308959A938A93BA93A3
:10140200AA9308955A934A933A932A931A930A9362
:1014120008955D814C813B812A811981088108955B
:00000001FF
